:1000000072C000009EC000009CC000009AC00000AA
:1000100098C0000096C0000094C0000092C000008C
:1000200090C000008EC000008CC000008AC000009C
:1000300088C0000086C0000084C0000082C00000AC
:1000400080C000007EC000007CC000007AC00000BC
:1000500078C0000076C0000074C00000A7C1000096
:1000600070C0000075C200004AC200006AC00000F3
:1000700068C0000066C0000064C0000062C00000EC
:1000800060C000005EC000005CC000005AC00000FC
:1000900000C20000D5C1000054C0000052C00000E2
:1000A00050C000004EC000004CC000004AC000001C
:1000B00048C0000046C0000044C0000042C000002C
:1000C00040C000003EC000003CC000003AC000003C
:1000D00038C0000036C0000034C0000032C000004C
:1000E00030C00000DE0211241FBECFEFD1E2DEBF20
:1000F000CDBF00E00CBF12E0A0E0B2E0E6E4F8E023
:1001000000E00BBF02C007900D92A032B107D9F7F3
:1001100023E0A0E2B2E001C01D92A336B207E1F7EE
:1001200010E0C3E7D0E000E005C021970109802F6F
:10013000FE017FD3C237D10780E00807B1F791D223
:1001400080C35ECFAF92BF92CF92DF92EF92FF92C9
:100150000F931F93CF93DF936C017B018B01040FEF
:10016000151FEB015E01AE18BF08C017D10759F08B
:100170006991D601ED91FC910190F081E02DC601CD
:100180001995892B79F7C501DF91CF911F910F91B7
:10019000FF90EF90DF90CF90BF90AF900895FC015B
:1001A000538D448D252F30E0842F90E0821B930BDC
:1001B000541710F0CF96089501970895FC01918D82
:1001C000828D981761F0A28DAE0FBF2FB11D5D9685
:1001D0008C91928D9F5F9F73928F90E008958FEF27
:1001E0009FEF0895FC01918D828D981731F0828DDB
:1001F000E80FF11D858D90E008958FEF9FEF089532
:10020000FC01918D228D892F90E0805C9F4F821B95
:1002100091098F739927089589E292E0F1DF21E037
:10022000892B09F420E0822F089586EC92E0E8DF24
:1002300021E0892B09F420E0822F0895FC01A48D90
:10024000A80FB92FB11DA35ABF4F2C91848D90E0F8
:1002500001968F739927848FA689B7892C93A089DB
:10026000B1898C91837080648C93938D848D981365
:1002700006C00288F389E02D80818F7D80830895F8
:10028000EF92FF920F931F93CF93DF93EC0181E0E6
:10029000888F9B8D8C8D98131AC0E889F98980818D
:1002A00085FF15C09FB7F894EE89FF896083E889C0
:1002B000F98980818370806480839FBF81E090E0B2
:1002C000DF91CF911F910F91FF90EF900895F62E3F
:1002D0000B8D10E00F5F1F4F0F731127E02E8C8DD9
:1002E0008E110BC00FB607FCFACFE889F98980811F
:1002F00085FFF5CFCE01A2DFF2CFEB8DEC0FFD2F06
:10030000F11DE35AFF4FF0829FB7F8940B8FEA89F3
:10031000FB8980818062D0CFCF93DF93EC01888D01
:100320008823B1F0AA89BB89E889F9898C9185FD78
:1003300003C0808186FD0CC00FB607FCF7CF8C91FF
:1003400085FFF2CF808185FFEDCFCE0177DFEACF49
:10035000DF91CF91089580E090E0892B21F065DF57
:1003600081110E94000080E090E0892B21F054DF91
:1003700081110E94000080E090E0892B49F080E02C
:1003800090E0892B29F00E94000081110E9400005A
:1003900080E090E0892B49F080E090E0892B29F003
:1003A0000E94000081110C94000008951F920F928A
:1003B0000FB60F9211242F933F938F939F93AF9378
:1003C000BF938091250290912602A0912702B091BF
:1003D00028023091240223E0230F2D3758F501968F
:1003E000A11DB11D20932402809325029093260223
:1003F000A0932702B09328028091200290912102BD
:10040000A0912202B09123020196A11DB11D8093FB
:10041000200290932102A0932202B0932302BF9165
:10042000AF919F918F913F912F910F900FBE0F90A1
:100430001F90189526E8230F0296A11DB11DD2CF5B
:100440001F920F920FB60F9211240BB60F922F939B
:100450003F934F935F936F937F938F939F93AF934C
:10046000BF93EF93FF9389E292E0E8DEFF91EF9173
:10047000BF91AF919F918F917F916F915F914F91BC
:100480003F912F910F900BBE0F900FBE0F901F90BA
:1004900018951F920F920FB60F9211240BB60F9260
:1004A0002F938F939F93EF93FF93E0913902F091F5
:1004B0003A028081E0913F02F091400282FD1DC02E
:1004C0009081809142028F5F8F7320914302821747
:1004D00041F0E0914202F0E0E75DFD4F958F80939F
:1004E0004202FF91EF919F918F912F910F900BBE40
:1004F0000F900FBE0F901F9018958081F2CF1F9222
:100500000F920FB60F9211240BB60F922F933F93B9
:100510004F935F936F937F938F939F93AF93BF930B
:10052000EF93FF9386EC92E089DEFF91EF91BF910C
:10053000AF919F918F917F916F915F914F913F917B
:100540002F910F900BBE0F900FBE0F901F9018951C
:100550001F920F920FB60F9211240BB60F922F938A
:100560008F939F93EF93FF93E091D602F091D70280
:100570008081E091DC02F091DD0282FD1DC090815E
:100580008091DF028F5F8F732091E002821741F02C
:10059000E091DF02F0E0EA53FD4F958F8093DF0298
:1005A000FF91EF919F918F912F910F900BBE0F9024
:1005B0000FBE0F901F9018958081F2CFE9E2F2E014
:1005C0001382128248EE53E060E070E0448355836A
:1005D0006683778384E092E0918380832DEC30E022
:1005E000358724872CEC30E03787268728EC30E0ED
:1005F000318B208B29EC30E0338B228B2AEC30E0DE
:10060000358B248B2EEC30E0378B268B118E128E9F
:10061000138E148EE6ECF2E013821282448355832B
:10062000668377839183808385EC90E095878487C8
:1006300084EC90E09787868780EC90E0918B808BAC
:1006400081EC90E0938B828B82EC90E0958B848B95
:1006500086EC90E0978B868B118E128E138E148E03
:100660000895789484B5826084BD84B5816084BD2A
:1006700085B5826085BD85B5816085BD80916E0040
:10068000816080936E001092810080918100826071
:1006900080938100809181008160809381008091AE
:1006A00080008160809380008091B100846080939D
:1006B000B1008091B00081608093B0008091910082
:1006C000826080939100809191008160809391007D
:1006D000809190008160809390008091A100826061
:1006E0008093A1008091A10081608093A1008091FE
:1006F000A00081608093A00080912101826080939E
:10070000210180912101816080932101809120014C
:1007100081608093200180917A00846080937A00C8
:1007200080917A00826080937A0080917A00816063
:1007300080937A0080917A00806880937A0010928A
:10074000C100E091D602F091D70222E02083E0912F
:10075000D202F091D3021082E091D402F091D5023E
:1007600080E180831092DE02E091DA02F091DB02F8
:1007700096E09083E091D802F091D9028081806167
:100780008083E091D802F091D902808188608083D3
:10079000E091D802F091D902808180688083E09155
:1007A000D802F091D90280818F7D8083E091390257
:1007B000F0913A022083E0913502F09136021082E6
:1007C000E0913702F09138028FEC80831092410261
:1007D000E0913D02F0913E029083E0913B02F09166
:1007E0003C02808180618083E0913B02F0913C0279
:1007F000808188608083E0913B02F0913C0280819F
:1008000080688083E0913B02F0913C0280818F7D83
:10081000808347E050E062E172E086EC92E092DC97
:1008200045E050E06AE172E089E292E08BDC93DD22
:10083000F0CFEE0FFF1F881F8BBF0790F691E02DC2
:060840001994F894FFCFAB
:10084600000000004001A200CF008C010001DE0084
:10085600F20064736673646673006473667364009F
:00000001FF
