:10000000E8C0000017C1000015C1000013C10000C6
:1000100011C100000FC100000DC100000BC10000A4
:1000200009C1000007C1000005C1000003C10000B4
:1000300001C10000FFC00000FDC00000FBC00000C7
:10004000F9C00000F7C00000F5C00000F3C00000D8
:10005000F1C00000EFC00000EDC000005AC7000072
:10006000E9C0000020C70000F5C60000E3C00000A2
:10007000E1C00000DFC00000DDC00000DBC0000008
:10008000D9C00000D7C00000D5C00000D3C0000018
:10009000D1C00000CFC00000CDC0000084C7000068
:1000A000C9C00000C7C00000C5C00000C3C0000038
:1000B000C1C00000BFC00000BDC00000BBC0000048
:1000C000B9C00000B7C00000B5C00000B3C0000058
:1000D000B1C00000AFC00000ADC00000ABC0000068
:1000E000A9C0000000002200250028002B002E00DF
:1000F0003100340002010000050108010B01050573
:100100000505070508080808020202020A0A08088D
:1001100004040404010101010101010103030303BB
:1001200003030303040707070C0C0C0C0C0C0C0C4A
:100130000202020206060606060606060B0B0B0B5B
:100140000B0B0B0B01021020200808102040102080
:10015000408002010201080402010102040810208B
:100160004080804020100804020180040201804089
:1001700020100804020108040201010204081020F2
:100180004080010204081020408000000A0B020990
:100190000C0D0E0807030401000000000000000021
:1001A000000000000000000000000000000000004F
:1001B000000000000000121110000000000000000C
:1001C000000000000000000000000000000000002F
:1001D000F20811241FBECFEFD1E2DEBFCDBF00E099
:1001E0000CBF12E0A0E0B2E0E8E5FCE100E00BBFEC
:1001F00002C007900D92A23BB107D9F728E0A2EB0D
:10020000B2E001C01D92AF37B207E1F710E0C9EECE
:10021000D0E000E006C021970109802FFE010E9476
:10022000EE0CC83ED10780E00807A9F70E944209FA
:100230000C942A0EE5CE9091C1079111FCCF91E06C
:100240009093C1079093C0072FEF2093BF071092A0
:10025000BE07260F2093BD079093BC079091BC0763
:10026000880F892B8093BC078091BB078130F9F4FC
:100270001092BB078091BC078093BB008091BC00AB
:1002800083FDF8CF85EC8093BC008091C10781305D
:10029000E1F38091BE07861710F46091BE07ACEBC6
:1002A000B6E0EDEBF5E080E0861303C0089585EE3F
:1002B000EACF9D9191938F5FF7CF282F30E0F9011E
:1002C000E657FE4F9491F901EC5BFE4F44912250AA
:1002D0003F4FF9012491222309F432C0992311F1EF
:1002E00091509231F8F4E92FF0E08827E558FE4F5D
:1002F0008F4F0C94EE0CA901AD018D01A101A50158
:100300009201B001B601BA01C001C401C801CE0119
:10031000D2019201D601DC01E001809180008F774B
:1003200080938000E22FF0E0EE0FFF1FEC51FF4FB3
:10033000A591B4918FB7F894EC914E2B4C938FBF4D
:100340000895809180008F7DEBCF80918000877F22
:10035000E7CF84B58F7784BDE5CF84B58F7DFBCFA4
:100360008091B0008F778093B000DCCF8091B00097
:100370008F7DF9CF809190008F7780939000D2CFBE
:10038000809190008F7DF9CF80919000877FF5CF8D
:100390008091A0008F778093A000C4CF8091A000AF
:1003A0008F7DF9CF8091A000877FF5CF80912001CC
:1003B0008F7780932001B6CF809120018F7DF9CF78
:1003C00080912001877FF5CFAF92BF92CF92DF92CD
:1003D000EF92FF920F931F93CF93DF936C017B01FA
:1003E0008B01040F151FEB015E01AE18BF08C0178B
:1003F000D10759F06991D601ED91FC910190F081FE
:10040000E02DC6011995892B79F7C501DF91CF91B0
:100410001F910F91FF90EF90DF90CF90BF90AF9022
:100420000895FC01538D448D252F30E0842F90E0FA
:10043000821B930B541710F0CF96089501970895DF
:10044000FC01918D828D981761F0A28DAE0FBF2FA8
:10045000B11D5D968C91928D9F5F9F73928F90E0FE
:1004600008958FEF9FEF0895FC01918D828D98176D
:1004700031F0828DE80FF11D858D90E008958FEFAA
:100480009FEF0895FC01918D228D892F90E0805C73
:100490009F4F821B91098F739927089586EC97E0EF
:1004A000F1DF21E0892B09F420E0822F0895FC017F
:1004B000A48DA80FB92FB11DA35ABF4F2C91848DC5
:1004C00090E001968F739927848FA689B7892C9322
:1004D000A089B1898C91837080648C93938D848D75
:1004E000981306C00288F389E02D80818F7D808378
:1004F0000895EF92FF920F931F93CF93DF93EC0138
:1005000081E0888F9B8D8C8D98131AC0E889F989BA
:10051000808185FF15C09FB7F894EE89FF896083BD
:10052000E889F98980818370806480839FBF81E03E
:1005300090E0DF91CF911F910F91FF90EF90089580
:10054000F62E0B8D10E00F5F1F4F0F731127E02E5B
:100550008C8D8E110BC00FB607FCFACFE889F98994
:10056000808185FFF5CFCE01A2DFF2CFEB8DEC0FBE
:10057000FD2FF11DE35AFF4FF0829FB7F8940B8FC8
:10058000EA89FB8980818062D0CFCF93DF93EC0131
:10059000888D8823B1F0AA89BB89E889F9898C9173
:1005A00085FD03C0808186FD0CC00FB607FCF7CF28
:1005B0008C9185FFF2CF808185FFEDCFCE0177DF73
:1005C000EACFDF91CF91089580E090E0892B21F070
:1005D00065DF81110E94000080E090E0892B49F0E6
:1005E00080E090E0892B29F00E94000081110E9498
:1005F000000080E090E0892B49F080E090E0892BBA
:1006000029F00E94000081110E94000080E090E02B
:10061000892B49F080E090E0892B29F00E940000AE
:1006200081110C94000008953FB7F8948091B705AC
:100630009091B805A091B905B091BA0526B5A89BCF
:1006400005C02F3F19F00196A11DB11D3FBFBA2F64
:10065000A92F982F8827BC01CD01620F711D811D24
:10066000911D42E0660F771F881F991F4A95D1F7A9
:1006700008958F929F92AF92BF92CF92DF92EF92A6
:10068000FF924B015C01D0DF6B017C01CDDF6C1967
:100690007D098E099F09683E734081059105B0F37D
:1006A00021E0821A9108A108B10888EEC80E83E003
:1006B000D81EE11CF11C81149104A104B10431F78E
:1006C000FF90EF90DF90CF90BF90AF909F908F9072
:1006D00008950895089585ED8093BC008091BC0035
:1006E00084FDFCCF1092C10708952091B004260F1D
:1006F0003327331F2F3F310509F0ECF42091C10758
:10070000FC0190E080E0243069F082E00895A0913F
:10071000B0042191AC014F545C4FA40FB52FB11D13
:100720002C930196861798F38091B004680F60931C
:10073000B00480E0089581E008950895E091BC053B
:100740008091BB05E81730F4F0E0E354FA4F808164
:1007500090E008958FEF9FEF08959091BC058091F0
:10076000BB052FEF3FEF981748F4E92FF0E0E35473
:10077000FA4F208130E09F5F9093BC05C901089536
:100780008091BB059091BC05891B990B0895CF9270
:10079000DF92EF92FF920F931F93CF93DF937C0131
:1007A000CB018A012091C507222389F0EB016B015F
:1007B000C40ED51ECC15DD0561F06991D701ED9110
:1007C000FC910190F081E02DC7011995F3CF642FC2
:1007D0008CDFC801DF91CF911F910F91FF90EF90B7
:1007E000DF90CF900895CF93DF931F92CDB7DEB700
:1007F00069832091C5072223F9F02091C2072F3F7A
:1008000059F421E030E0FC013383228390E080E062
:100810000F90DF91CF9108958091C307E82FF0E00A
:10082000EE54FD4F998190838F5F8093C30780932F
:10083000C20781E090E0ECCF61E0CE01019655DF88
:10084000F8CF2091C2078091C4079091C107911100
:10085000FCCF92E09093C10791E09093C0079FEF87
:100860009093BF071092BE072093BD07E2EBF2E022
:10087000ACEBB6E090E0291331C01092BC07909128
:10088000BC07880F892B8093BC078091BB07813000
:1008900049F51092BB078091BC078093BB00809103
:1008A000BC0083FDF8CF85EC8093BC008091C1072C
:1008B0008230E1F38091BF078F3FB1F08091BF0795
:1008C0008032A1F08091BF07803391F084E01092D4
:1008D000C3071092C2071092C507089531913D9346
:1008E0009F5FC9CF85EEE0CF80E0F1CF82E0EFCF10
:1008F00083E0EDCF1F93CF93DF93162FCFE6D8E0A1
:10090000AC81BD819B8121E02093C5079093C407F2
:100910001092C3071092C207ED91FC9111970190BC
:10092000F081E02D682FCD0119958C819D81DC012E
:10093000ED91FC910190F081E02D612F19958C8152
:100940009D817FDF81E0DF91CF911F910895EFE6D8
:10095000F8E082879387682F8DE390E0CBDF6EE12C
:1009600070E080E090E085CECF93DF93CFE6D8E0D3
:100970008C819D812B8131E03093C5072093C40782
:100980001092C3071092C207DC01ED91FC91019017
:10099000F081E02D60E019958C819D8152DF61E04E
:1009A0008B8149DC1092BC058093BB058C819D81B5
:1009B000DC01ED91FC910284F385E02D1995DF9126
:1009C000CF91089590E080E00895FC01019000200F
:1009D000E9F73197AF01481B590BBC0186EC97E052
:1009E000F3CC8F929F92AF92BF920F931F93CF93AE
:1009F000DF93CDB7DEB7A1970FB6F894DEBF0FBE79
:100A0000CDBF19A2423008F44AE08E010F5D1F4F9E
:100A1000842E912CB12CA12CA5019401BDD7E62FD9
:100A2000B901CA01EA30ECF4E05DD801EE938D0122
:100A3000232B242B252B81F790E080E0109711F0D9
:100A4000CD01C3DFA1960FB6F894DEBF0FBECDBFB8
:100A5000DF91CF911F910F91BF90AF909F908F909A
:100A60000895E95CE2CFCF93DF93AFDFEC0188E339
:100A700092E0ABDF8C0F9D1FDF91CF9108954F92D5
:100A80005F926F927F928F929F92AF92BF92CF921E
:100A9000DF92EF92FF920F931F93CF936B017C0134
:100AA000742EAC019B0174D7882391F08BE392E004
:100AB000CF911F910F91FF90EF90DF90CF90BF905B
:100AC000AF909F908F907F906F905F904F907DCF71
:100AD00046015701E894B7F82FEF3FEF4FE75FE784
:100AE000C501B40155D781110CC02FEF3FEF4FE77F
:100AF0005FE7C501B4019BD518161CF48FE392E0A3
:100B0000D7CF2FEF3FEF4FE75FE4C701B601D9D64C
:100B100018161CF483E492E0CBCF2FEF3FEF4FE7A2
:100B20005FECC701B60183D587FDF4CF20E030E04C
:100B3000A901C701B6017BD510E000E087FF09C01D
:100B40006DE286EC97E0D5DC8C01F7FAF094F7F8CB
:100B5000F094C0E060E070E080E09FE37C1639F044
:100B600020E030E040E251E466D5CF5FF7CFA70147
:100B70009601F9D42B013C01C6D54B015C014AE03A
:100B800030DF7C01E00EF11ECC2381F1C501B40100
:100B9000E6D59B01AC01C301B201E4D44B015C0179
:100BA0006EE286EC97E0A5DCE80EF91EC150F0F08D
:100BB00020E030E040E251E4C501B40186D62B01CB
:100BC0003C01A1D54B01B12CA12C4AE0C501B401D7
:100BD00008DFE80EF91EC501B401C1D59B01AC01C7
:100BE000C301B201BFD44B015C01E0CFC701CF917B
:100BF0001F910F91FF90EF90DF90CF90BF90AF903B
:100C00009F908F907F906F905F904F9008958AC7CC
:100C10008F929F92AF92BF92CF92DF92EF92FF920C
:100C20000F931F93CF93DF93CDB7DEB762970FB6C5
:100C3000F894DEBF0FBECDBF6C018B01FB01349673
:100C400080E2DF011D928A95E9F784E290E0A0E05E
:100C5000B0E0FB0180839183A283B383F601868198
:100C60009781A085B185FB0184839583A683B78393
:100C700083E090E0A0E0B0E080879187A287B3870F
:100C80002FB7F8948091B3059091B405A091B50564
:100C9000B091B6052FBF808B918BA28BB38B8CE06C
:100CA000FE013196DF011D928A95E9F77E01BDE0D4
:100CB000EB0EF11C86E0F70111928A95E9F7D60157
:100CC00014968D919C91159713962C9131E0309349
:100CD000C5072093C4071092C3071092C207DC0116
:100CE000ED91FC910190F081E02D6AE11995F601FA
:100CF00084819581A6DD66E0D60113968C919BDAFE
:100D00001092BC058093BB055E01B3E1AB0EB11C34
:100D1000F60184819581DC01ED91FC910284F385DB
:100D2000E02D1995F70181937F01EA15FB0581F705
:100D30006D857E85072E000C880B990B12D520E05F
:100D400030E040E85DE3C1D54B015C016F857889F7
:100D5000072E000C880B990B04D520E030E040E80A
:100D60005DE3B3D56B017C0169897A89072E000C9C
:100D7000880B990BF6D420E030E040E85DE3A5D580
:100D8000D80154968D929D92AD92BC925797F801DE
:100D9000C08ED18EE28EF38E5C966D937D938D9393
:100DA0009C935F9781E062960FB6F894DEBF0FBE0A
:100DB000CDBFDF91CF911F910F91FF90EF90DF900A
:100DC000CF90BF90AF909F908F9008950F931F93F7
:100DD000CF93DF938C01EB0188E2FB0111928A959E
:100DE000E9F74BE050E067E472E0CE0124D71B86C0
:100DF00081E090E0A0E0B0E08C879D87AE87BF8760
:100E0000F80186819781A085B185888B998BAA8B03
:100E1000BB8B83E090E0A0E0B0E08C8B9D8BAE8B31
:100E2000BF8B1CA21DA21EA21FA2188E198E1A8E85
:100E30001B8E1C8E1D8E1E8E1F8E8AE097EDA3E2E8
:100E4000BCE388A399A3AAA3BBA3DF91CF911F9171
:100E50000F9108951F920F920FB60F9211240BB6A7
:100E60000F922F933F934F935F936F937F938F9343
:100E70009F93AF93BF93EF93FF9386EC97E017DBBD
:100E8000FF91EF91BF91AF919F918F917F916F9162
:100E90005F914F913F912F910F900BBE0F900FBE1E
:100EA0000F901F9018951F920F920FB60F9211245A
:100EB0000BB60F922F938F939F93EF93FF93E09135
:100EC000D607F091D7078081E091DC07F091DD072C
:100ED00082FD1DC090818091DF078F5F8F7320910D
:100EE000E007821741F0E091DF07F0E0EA53F84FA6
:100EF000958F8093DF07FF91EF919F918F912F91B5
:100F00000F900BBE0F900FBE0F901F901895808111
:100F1000F2CF1F920F920FB60F9211242F933F938F
:100F20008F939F93AF93BF938091B3059091B40536
:100F3000A091B505B091B6053091B20523E0230F1D
:100F40002D3758F50196A11DB11D2093B205809350
:100F5000B3059093B405A093B505B093B605809101
:100F6000B7059091B805A091B905B091BA05019661
:100F7000A11DB11D8093B7059093B805A093B90545
:100F8000B093BA05BF91AF919F918F913F912F91EF
:100F90000F900FBE0F901F90189526E8230F029612
:100FA000A11DB11DD2CF1F920F920FB60F92112427
:100FB0000BB60F922F933F934F935F936F937F9353
:100FC0008F939F93AF93BF93EF93FF938091B9005B
:100FD000887F803609F44CC008F03FC0883209F49D
:100FE000A6C028F5803109F49AC0C8F4882309F412
:100FF000F6C0883009F493C0FF91EF91BF91AF9193
:101000009F918F917F916F915F914F913F912F9120
:101010000F900BBE0F900FBE0F901F901895883148
:1010200009F485C0803241F78093BF0714C0803433
:1010300009F49AC040F48033B9F38833E9F6809319
:10104000BF0785ECADC0803509F482C0883509F44E
:1010500093C0883489F63FDBCFCF883909F48AC042
:1010600038F5883729F050F4883611F0803721F6AA
:1010700083E08093C1071092B10555C0883809F408
:1010800079C0803919F0803809F0B6CF8091B10568
:101090008F3F09F46FC0E091B10581E08E0F80931E
:1010A000B1058091BB00F0E0EE54FB4F80833BC064
:1010B000803B39F0D0F4803A09F477C0883A09F0DF
:1010C0009BCF84E08093C1071092B1041092B004CA
:1010D000F0E0E0E019958091B00481110FC081E04B
:1010E0008093B0041092B10309C0803C09F4A9CFE9
:1010F000883C09F4A6CF883B09F07ECFE091B1048B
:1011000081E08E0F8093B104F0E0EF54FC4F8081BA
:101110008093BB009091B1048091B00429C080916C
:10112000BC078093BB0085EC8093BC0065CF909199
:10113000BE078091BD07981758F5E091BE0781E082
:101140008E0F8093BE07F0E0E454F94F8081E9CF21
:10115000E091BE0781E08E0F8093BE078091BB00B7
:10116000F0E0E454F94F80839091BE078091BD0771
:101170009817C8F285E8D8CFE091BE0781E08E0FBE
:101180008093BE078091BB00F0E0E454F94F808368
:101190008091C00781115FCF81E08093BB0784EA13
:1011A0008093BC001092C10727CF85EC8093BC00D0
:1011B0001092C1078091B1058F3F31F0E091B105E8
:1011C000F0E0EE54FB4F10826091B10570E082EBCD
:1011D00094E0F0E0E0E019951092B1050DCF109287
:1011E000BF0739CFE6ECF7E01382128248EE53E0F6
:1011F00060E070E044835583668377838AE092E001
:101200009183808385EC90E09587848784EC90E0DF
:101210009787868780EC90E0918B808B81EC90E0C3
:10122000938B828B82EC90E0958B848B86EC90E0A4
:10123000978B868B118E128E138E148EA3E6B8E0D8
:1012400013961C921E92129714964D935D936D9374
:101250007C9317978CE192E011969C938E93EFE626
:10126000F8E08EE292E09183808347E350E060E013
:1012700070E0468357836087718788E28383B583F4
:10128000A4830895CF93DF93CDB7DEB7A4970FB6AD
:10129000F894DEBF0FBECDBF789484B5826084BD64
:1012A00084B5816084BD85B5826085BD85B581606A
:1012B00085BD80916E00816080936E0010928100E8
:1012C00080918100826080938100809181008160A3
:1012D0008093810080918000816080938000809164
:1012E000B10084608093B1008091B00081608093F0
:1012F000B000809191008260809391008091910074
:101300008160809391008091900081608093900033
:101310008091A10082608093A1008091A1008160F2
:101320008093A1008091A00081608093A0008091B3
:10133000210182608093210180912101816080934D
:1013400021018091200181608093200180917A00A9
:10135000846080937A0080917A00826080937A0022
:1013600080917A00816080937A0080917A00806811
:1013700080937A001092C100E091D607F091D707D0
:1013800082E08083E091D207F091D3071082E09150
:10139000D407F091D50780E180831092DE07E091B9
:1013A000DA07F091DB0786E08083E091D807F091BF
:1013B000D907808180618083E091D807F091D907B7
:1013C000808188608083E091D807F091D90780817F
:1013D00080688083E091D807F091D90780818F7D64
:1013E00080838EE492E03FDB8AE392E03CDB109264
:1013F000BC051092BB051092C3071092C207109251
:10140000C10781E08093C0071092BB0784E10E946E
:101410005D0185E10E945D018091B9008E7F80931E
:10142000B9008091B9008D7F8093B9008CE08093E2
:10143000B80085E48093BC0097DA803A61F068EEEA
:1014400073E080E090E015D98FDA803A21F086E6EB
:1014500092E0BBDAFFCF90E080E079DA60E28FE3E0
:1014600090E048DA6EE170E080E090E002D97CDA4A
:10147000803A29F06AE070E080E090E0F7CF62E324
:1014800070E080E090E0F5D860E08EE390E032DA42
:101490006AE070E080E090E0ECD860E087E090E007
:1014A00029DA60E08FE390E025DA6AE070E080E01E
:1014B00090E0DFD88CE090E04ADA64E170E080E010
:1014C00090E0D7D868EE73E080E090E0D2D8009149
:1014D000790810917A0890E080E039DA69E170E0EB
:1014E00080E090E0C6D860E087E090E003DA60E852
:1014F0008FE390E0FFD96AE070E080E090E0B9D837
:10150000C80125DA64E170E080E090E0B2D8BE0165
:101510006F5F7F4F8FE698E07BDB83EA92E055DADE
:101520006D897E898F89988D44E0A9DA87EA92E0F7
:101530004CDA698D7A8D8B8D9C8D44E0A0DA8CEA33
:1015400092E043DA6D8D7E8D8F8D98A144E097DA1D
:101550008AE392E088DA64E670E080E090E089D87F
:1015600033D8D5CF5058BB27AA270ED070C161D130
:1015700030F066D120F031F49F3F11F41EF456C1D3
:101580000EF4E095E7FB4CC1E92F72D180F3BA1756
:10159000620773078407950718F071F49EF58AC1F6
:1015A0000EF4E0950B2EBA2FA02D0B01B90190017E
:1015B0000C01CA01A0011124FF27591B99F0593FC2
:1015C00050F4503E68F11A16F040A22F232F342F0A
:1015D0004427585FF3CF469537952795A795F04058
:1015E0005395C9F77EF41F16BA0B620B730B840B6D
:1015F000BAF09150A1F0FF0FBB1F661F771F881F25
:10160000C2F70EC0BA0F621F731F841F48F487957C
:1016100077956795B795F7959E3F08F0B3CF93956B
:10162000880F08F09927EE0F979587950895D4D0E5
:1016300008F481E008950CD00AC102D140F0F9D03D
:1016400030F021F45F3F19F0EBC0511134C1EEC00E
:101650000FD198F39923C9F35523B1F3951B550B7B
:10166000BB27AA2762177307840738F09F5F5F4F75
:10167000220F331F441FAA1FA9F333D00E2E3AF0B6
:10168000E0E830D091505040E695001CCAF729D0D0
:10169000FE2F27D0660F771F881FBB1F261737071F
:1016A0004807AB07B0E809F0BB0B802DBF01FF274F
:1016B00093585F4F2AF09E3F510568F0B1C0FBC0C0
:1016C0005F3FECF3983EDCF3869577956795B79589
:1016D000F7959F5FC9F7880F911D9695879597F9A4
:1016E0000895E1E0660F771F881FBB1F621773071D
:1016F0008407BA0720F0621B730B840BBA0BEE1F32
:1017000088F7E0950895BCD088F09F5790F0B92FE6
:101710009927B751A0F0D1F0660F771F881F991F46
:101720001AF0BA95C9F712C0B13081F0C3D0B1E058
:101730000895C0C0672F782F8827B85F39F0B93F68
:10174000CCF3869577956795B395D9F73EF4909548
:101750008095709561957F4F8F4F9F4F0895E894C6
:1017600009C097FB3EF490958095709561957F4FE9
:101770008F4F9F4F9923A9F0F92F96E9BB27939597
:10178000F695879577956795B795F111F8CFFAF4A7
:10179000BB0F11F460FF1BC06F5F7F4F8F4F9F4FD8
:1017A00016C0882311F096E911C0772321F09EE836
:1017B000872F762F05C0662371F096E8862F70E09C
:1017C00060E02AF09A95660F771F881FDAF7880F76
:1017D0009695879597F90895990F0008550FAA0BCC
:1017E000E0E8FEEF16161706E807F907C0F0121634
:1017F0001306E407F50798F0621B730B840B950B37
:1018000039F40A2661F0232B242B252B21F408958B
:101810000A2609F4A140A6958FEF811D811D089528
:1018200097F99F6780E870E060E008959FEF80EC93
:10183000089500240A941616170618060906089536
:1018400000240A9412161306140605060895092E9C
:101850000394000C11F4882352F0BB0F40F4BF2B0B
:1018600011F460FF04C06F5F7F4F8F4F9F4F08954B
:1018700057FD9058440F551F59F05F3F71F0479541
:10188000880F97FB991F61F09F3F79F08795089526
:10189000121613061406551FF2CF4695F1DF08C045
:1018A000161617061806991FF1CF86957105610562
:1018B00008940895E894BB2766277727CB0197F90A
:1018C00008958ADF08F48FEF08950BD0C0CFB1DF01
:1018D00028F0B6DF18F0952309F0A2CFA7CF112486
:1018E000EACFC6DFA0F3959FD1F3950F50E0551FC7
:1018F000629FF001729FBB27F00DB11D639FAA2765
:10190000F00DB11DAA1F649F6627B00DA11D661FB3
:10191000829F2227B00DA11D621F739FB00DA11DD4
:10192000621F839FA00D611D221F749F3327A00D8E
:10193000611D231F849F600D211D822F762F6A2F2A
:1019400011249F5750408AF0E1F088234AF0EE0FAF
:10195000FF1FBB1F661F771F881F91505040A9F7BC
:101960009E3F510570F05CCFA6CF5F3FECF3983EF1
:10197000DCF3869577956795B795F795E7959F5F23
:10198000C1F7FE2B880F911D9695879597F90895BD
:1019900023DF880B990B0895A1E21A2EAA1BBB1B0B
:1019A000FD010DC0AA1FBB1FEE1FFF1FA217B3072B
:1019B000E407F50720F0A21BB30BE40BF50B661F41
:1019C000771F881F991F1A9469F760957095809505
:1019D00090959B01AC01BD01CF010895EE0FFF1F53
:1019E000881F8BBF0790F691E02D19940F931F93DA
:1019F000CF93DF938230910510F482E090E0E09184
:101A00007D08F0917E0830E020E0B0E0A0E0309763
:101A100099F42115310509F44AC0281B390B2430EB
:101A20003105D8F58A819B816115710589F1FB012A
:101A300093838283FE0111C0408151810281138111
:101A400048175907E0F04817590799F4109761F0C3
:101A500012960C93129713961C933296CF01DF9136
:101A6000CF911F910F91089500937D0810937E08E8
:101A7000F4CF2115310551F04217530738F0A90171
:101A8000DB019A01BD01DF01F801C1CFEF01F9CF00
:101A900090937E0880937D08CDCFFE01E20FF31F67
:101AA000819391932250310939832883D7CF209194
:101AB0007B0830917C08232B41F420910202309165
:101AC000030230937C0820937B0820910002309120
:101AD00001022115310541F42DB73EB740910402B2
:101AE00050910502241B350BE0917B08F0917C0896
:101AF000E217F307A0F42E1B3F0B2817390778F0E5
:101B0000AC014E5F5F4F2417350748F04E0F5F1F43
:101B100050937C0840937B08819391939FCFF0E092
:101B2000E0E09CCFCF93DF930097E9F0FC01329780
:101B300013821282A0917D08B0917E08ED0130E001
:101B400020E01097A1F420813181820F931F209112
:101B50007B0830917C082817390709F061C0F093A1
:101B60007C08E0937B08DF91CF910895EA01CE17BE
:101B7000DF07E8F54A815B819E0141155105B1F708
:101B8000E901FB83EA8349915991C40FD51FEC17F2
:101B9000FD0761F4808191810296840F951FE90110
:101BA00099838883828193819B838A83F0E0E0E03C
:101BB00012968D919C9113970097B9F52D913C91B8
:101BC0001197CD010296820F931F20917B083091CF
:101BD0007C082817390739F6309751F510927E089E
:101BE00010927D08B0937C08A0937B08BCCFD38370
:101BF000C28340815181840F951FC817D90761F4B2
:101C00004E5F5F4F88819981480F591F51834083F0
:101C10008A819B81938382832115310509F0B0CF9E
:101C2000F0937E08E0937D089ECFFD01DC01C0CFDC
:101C300013821282D7CFFB01DC014150504048F0A3
:101C400001900D920020C9F701C01D9241505040F3
:081C5000E0F70895F894FFCFBE
:101C580000007F088000000000007902E401110202
:101C6800C50242022002340200000000F303C70349
:101C7800E2049D03C003AD039E0300000000690356
:101C880007066A030806E6060D0A006E616E00691B
:101C98006E66006F766600424E4F303535004F72E3
:101CA80069656E746174696F6E2053656E736F72C7
:101CB8002054657374004F6F6F70732C206E6F2003
:101CC800424E4F3035352064657465637465642011
:101CD8002E2E2E20436865636B20796F75722077EE
:101CE8006972696E67206F7220493243204144440B
:101CF800522100583A200009593A2000095A3A203E
:021D08000000D9
:00000001FF
