:10000000E8C0000017C1000015C1000013C10000C6
:1000100011C100000FC100000DC100000BC10000A4
:1000200009C1000007C1000005C1000003C10000B4
:1000300001C10000FFC00000FDC00000FBC00000C7
:10004000F9C00000F7C00000F5C00000F3C00000D8
:10005000F1C00000EFC00000EDC000005AC7000072
:10006000E9C0000020C70000F5C60000E3C00000A2
:10007000E1C00000DFC00000DDC00000DBC0000008
:10008000D9C00000D7C00000D5C00000D3C0000018
:10009000D1C00000CFC00000CDC0000084C7000068
:1000A000C9C00000C7C00000C5C00000C3C0000038
:1000B000C1C00000BFC00000BDC00000BBC0000048
:1000C000B9C00000B7C00000B5C00000B3C0000058
:1000D000B1C00000AFC00000ADC00000ABC0000068
:1000E000A9C0000000002200250028002B002E00DF
:1000F0003100340002010000050108010B01050573
:100100000505070508080808020202020A0A08088D
:1001100004040404010101010101010103030303BB
:1001200003030303040707070C0C0C0C0C0C0C0C4A
:100130000202020206060606060606060B0B0B0B5B
:100140000B0B0B0B01021020200808102040102080
:10015000408002010201080402010102040810208B
:100160004080804020100804020180040201804089
:1001700020100804020108040201010204081020F2
:100180004080010204081020408000000A0B020990
:100190000C0D0E0807030401000000000000000021
:1001A000000000000000000000000000000000004F
:1001B000000000000000121110000000000000000C
:1001C000000000000000000000000000000000002F
:1001D000F20811241FBECFEFD1E2DEBFCDBF00E099
:1001E0000CBF12E0A0E0B2E0E8E5FCE100E00BBFEC
:1001F00002C007900D92A23BB107D9F728E0A2EB0D
:10020000B2E001C01D92AF37B207E1F710E0C9EECE
:10021000D0E000E006C021970109802FFE010E9476
:10022000EE0CC83ED10780E00807A9F70E944209FA
:100230000C942A0EE5CE9091C1079111FCCF91E06C
:100240009093C1079093C0072FEF2093BF071092A0
:10025000BE07260F2093BD079093BC079091BC0763
:10026000880F892B8093BC078091BB078130F9F4FC
:100270001092BB078091BC078093BB008091BC00AB
:1002800083FDF8CF85EC8093BC008091C10781305D
:10029000E1F38091BE07861710F46091BE07ACEBC6
:1002A000B6E0EDEBF5E080E0861303C0089585EE3F
:1002B000EACF9D9191938F5FF7CF282F30E0F9011E
:1002C000E657FE4F9491F901EC5BFE4F44912250AA
:1002D0003F4FF9012491222309F432C0992311F1EF
:1002E00091509231F8F4E92FF0E08827E558FE4F5D
:1002F0008F4F0C94EE0CA901AD018D01A101A50158
:100300009201B001B601BA01C001C401C801CE0119
:10031000D2019201D601DC01E001809180008F774B
:1003200080938000E22FF0E0EE0FFF1FEC51FF4FB3
:10033000A591B4918FB7F894EC914E2B4C938FBF4D
:100340000895809180008F7DEBCF80918000877F22
:10035000E7CF84B58F7784BDE5CF84B58F7DFBCFA4
:100360008091B0008F778093B000DCCF8091B00097
:100370008F7DF9CF809190008F7780939000D2CFBE
:10038000809190008F7DF9CF80919000877FF5CF8D
:100390008091A0008F778093A000C4CF8091A000AF
:1003A0008F7DF9CF8091A000877FF5CF80912001CC
:1003B0008F7780932001B6CF809120018F7DF9CF78
:1003C00080912001877FF5CFAF92BF92CF92DF92CD
:1003D000EF92FF920F931F93CF93DF936C017B01FA
:1003E0008B01040F151FEB015E01AE18BF08C0178B
:1003F000D10759F06991D601ED91FC910190F081FE
:10040000E02DC6011995892B79F7C501DF91CF91B0
:100410001F910F91FF90EF90DF90CF90BF90AF9022
:100420000895FC01538D448D252F30E0842F90E0FA
:10043000821B930B541710F0CF96089501970895DF
:10044000FC01918D828D981761F0A28DAE0FBF2FA8
:10045000B11D5D968C91928D9F5F9F73928F90E0FE
:1004600008958FEF9FEF0895FC01918D828D98176D
:1004700031F0828DE80FF11D858D90E008958FEFAA
:100480009FEF0895FC01918D228D892F90E0805C73
:100490009F4F821B91098F739927089586EC97E0EF
:1004A000F1DF21E0892B09F420E0822F0895FC017F
:1004B000A48DA80FB92FB11DA35ABF4F2C91848DC5
:1004C00090E001968F739927848FA689B7892C9322
:1004D000A089B1898C91837080648C93938D848D75
:1004E000981306C00288F389E02D80818F7D808378
:1004F0000895EF92FF920F931F93CF93DF93EC0138
:1005000081E0888F9B8D8C8D98131AC0E889F989BA
:10051000808185FF15C09FB7F894EE89FF896083BD
:10052000E889F98980818370806480839FBF81E03E
:1005300090E0DF91CF911F910F91FF90EF90089580
:10054000F62E0B8D10E00F5F1F4F0F731127E02E5B
:100550008C8D8E110BC00FB607FCFACFE889F98994
:10056000808185FFF5CFCE01A2DFF2CFEB8DEC0FBE
:10057000FD2FF11DE35AFF4FF0829FB7F8940B8FC8
:10058000EA89FB8980818062D0CFCF93DF93EC0131
:10059000888D8823B1F0AA89BB89E889F9898C9173
:1005A00085FD03C0808186FD0CC00FB607FCF7CF28
:1005B0008C9185FFF2CF808185FFEDCFCE0177DF73
:1005C000EACFDF91CF91089580E090E0892B21F070
:1005D00065DF81110E94000080E090E0892B49F0E6
:1005E00080E090E0892B29F00E94000081110E9498
:1005F000000080E090E0892B49F080E090E0892BBA
:1006000029F00E94000081110E94000080E090E02B
:10061000892B49F080E090E0892B29F00E940000AE
:1006200081110C94000008953FB7F8948091B705AC
:100630009091B805A091B905B091BA0526B5A89BCF
:1006400005C02F3F19F00196A11DB11D3FBFBA2F64
:10065000A92F982F8827BC01CD01620F711D811D24
:10066000911D42E0660F771F881F991F4A95D1F7A9
:1006700008958F929F92AF92BF92CF92DF92EF92A6
:10068000FF924B015C01D0DF6B017C01CDDF6C1967
:100690007D098E099F09683E734081059105B0F37D
:1006A00021E0821A9108A108B10888EEC80E83E003
:1006B000D81EE11CF11C81149104A104B10431F78E
:1006C000FF90EF90DF90CF90BF90AF909F908F9072
:1006D00008950895089585ED8093BC008091BC0035
:1006E00084FDFCCF1092C10708952091B004260F1D
:1006F0003327331F2F3F310509F0ECF42091C10758
:10070000FC0190E080E0243069F082E00895A0913F
:10071000B0042191AC014F545C4FA40FB52FB11D13
:100720002C930196861798F38091B004680F60931C
:10073000B00480E0089581E008950895E091BC053B
:100740008091BB05E81730F4F0E0E354FA4F808164
:1007500090E008958FEF9FEF08959091BC058091F0
:10076000BB052FEF3FEF981748F4E92FF0E0E35473
:10077000FA4F208130E09F5F9093BC05C901089536
:100780008091BB059091BC05891B990B0895CF9270
:10079000DF92EF92FF920F931F93CF93DF937C0131
:1007A000CB018A012091C507222389F0EB016B015F
:1007B000C40ED51ECC15DD0561F06991D701ED9110
:1007C000FC910190F081E02DC7011995F3CF642FC2
:1007D0008CDFC801DF91CF911F910F91FF90EF90B7
:1007E000DF90CF900895CF93DF931F92CDB7DEB700
:1007F00069832091C5072223F9F02091C2072F3F7A
:1008000059F421E030E0FC013383228390E080E062
:100810000F90DF91CF9108958091C307E82FF0E00A
:10082000EE54FD4F998190838F5F8093C30780932F
:10083000C20781E090E0ECCF61E0CE01019655DF88
:10084000F8CF2091C2078091C4079091C107911100
:10085000FCCF92E09093C10791E09093C0079FEF87
:100860009093BF071092BE072093BD07E2EBF2E022
:10087000ACEBB6E090E0291331C01092BC07909128
:10088000BC07880F892B8093BC078091BB07813000
:1008900049F51092BB078091BC078093BB00809103
:1008A000BC0083FDF8CF85EC8093BC008091C1072C
:1008B0008230E1F38091BF078F3FB1F08091BF0795
:1008C0008032A1F08091BF07803391F084E01092D4
:1008D000C3071092C2071092C507089531913D9346
:1008E0009F5FC9CF85EEE0CF80E0F1CF82E0EFCF10
:1008F00083E0EDCF1F93CF93DF93162FCFE6D8E0A1
:10090000AC81BD819B8121E02093C5079093C407F2
:100910001092C3071092C207ED91FC9111970190BC
:10092000F081E02D682FCD0119958C819D81DC012E
:10093000ED91FC910190F081E02D612F19958C8152
:100940009D817FDF81E0DF91CF911F910895EFE6D8
:10095000F8E082879387682F8DE390E0CBDF6EE12C
:1009600070E080E090E085CECF93DF93CFE6D8E0D3
:100970008C819D812B8131E03093C5072093C40782
:100980001092C3071092C207DC01ED91FC91019017
:10099000F081E02D60E019958C819D8152DF61E04E
:1009A0008B8149DC1092BC058093BB058C819D81B5
:1009B000DC01ED91FC910284F385E02D1995DF9126
:1009C000CF91089590E080E00895FC01019000200F
:1009D000E9F73197AF01481B590BBC0186EC97E052
:1009E000F3CC8F929F92AF92BF920F931F93CF93AE
:1009F000DF93CDB7DEB7A1970FB6F894DEBF0FBE79
:100A0000CDBF19A2423008F44AE08E010F5D1F4F9E
:100A1000842E912CB12CA12CA5019401BDD7E62FD9
:100A2000B901CA01EA30ECF4E05DD801EE938D0122
:100A3000232B242B252B81F790E080E0109711F0D9
:100A4000CD01C3DFA1960FB6F894DEBF0FBECDBFB8
:100A5000DF91CF911F910F91BF90AF909F908F909A
:100A60000895E95CE2CFCF93DF93AFDFEC0188E339
:100A700092E0ABDF8C0F9D1FDF91CF9108954F92D5
:100A80005F926F927F928F929F92AF92BF92CF921E
:100A9000DF92EF92FF920F931F93CF936B017C0134
:100AA000742EAC019B0174D7882391F08BE392E004
:100AB000CF911F910F91FF90EF90DF90CF90BF905B
:100AC000AF909F908F907F906F905F904F907DCF71
:100AD00046015701E894B7F82FEF3FEF4FE75FE784
:100AE000C501B40155D781110CC02FEF3FEF4FE77F
:100AF0005FE7C501B4019BD518161CF48FE392E0A3
:100B0000D7CF2FEF3FEF4FE75FE4C701B601D9D64C
:100B100018161CF483E492E0CBCF2FEF3FEF4FE7A2
:100B20005FECC701B60183D587FDF4CF20E030E04C
:100B3000A901C701B6017BD510E000E087FF09C01D
:100B40006DE286EC97E0D5DC8C01F7FAF094F7F8CB
:100B5000F094C0E060E070E080E09FE37C1639F044
:100B600020E030E040E251E466D5CF5FF7CFA70147
:100B70009601F9D42B013C01C6D54B015C014AE03A
:100B800030DF7C01E00EF11ECC2381F1C501B40100
:100B9000E6D59B01AC01C301B201E4D44B015C0179
:100BA0006EE286EC97E0A5DCE80EF91EC150F0F08D
:100BB00020E030E040E251E4C501B40186D62B01CB
:100BC0003C01A1D54B01B12CA12C4AE0C501B401D7
:100BD00008DFE80EF91EC501B401C1D59B01AC01C7
:100BE000C301B201BFD44B015C01E0CFC701CF917B
:100BF0001F910F91FF90EF90DF90CF90BF90AF903B
:100C00009F908F907F906F905F904F9008958AC7CC
:100C10008F929F92AF92BF92CF92DF92EF92FF920C
:100C20000F931F93CF93DF93CDB7DEB762970FB6C5
:100C3000F894DEBF0FBECDBF6C018B01FB01349673
:100C400080E2DF011D928A95E9F784E290E0A0E05E
:100C5000B0E0FB0180839183A283B383F601868198
:100C60009781A085B185FB0184839583A683B78393
:100C700083E090E0A0E0B0E080879187A287B3870F
:100C80002FB7F8948091B3059091B405A091B50564
:100C9000B091B6052FBF808B918BA28BB38B8CE06C
:100CA000FE013196DF011D928A95E9F77E01BDE0D4
:100CB000EB0EF11C86E0F70111928A95E9F7D60157
:100CC00014968D919C91159713962C9131E0309349
:100CD000C5072093C4071092C3071092C207DC0116
:100CE000ED91FC910190F081E02D6AE11995F601FA
:100CF00084819581A6DD66E0D60113968C919BDAFE
:100D00001092BC058093BB055E01B3E1AB0EB11C34
:100D1000F60184819581DC01ED91FC910284F385DB
:100D2000E02D1995F70181937F01EA15FB0581F705
:100D30006D857E85072E000C880B990B12D520E05F
:100D400030E040E85DE3C1D54B015C016F857889F7
:100D5000072E000C880B990B04D520E030E040E80A
:100D60005DE3B3D56B017C0169897A89072E000C9C
:100D7000880B990BF6D420E030E040E85DE3A5D580
:100D8000D80154968D929D92AD92BC925797F801DE
:100D9000C08ED18EE28EF38E5C966D937D938D9393
:100DA0009C935F9781E062960FB6F894DEBF0FBE0A
:100DB000CDBFDF91CF911F910F91FF90EF90DF900A
:100DC000CF90BF90AF909F908F9008950F931F93F7
:100DD000CF93DF938C01EB0188E2FB0111928A959E
:100DE000E9F74BE050E067E472E0CE0124D71B86C0
:100DF00081E090E0A0E0B0E08C879D87AE87BF8760
:100E0000F80186819781A085B185888B998BAA8B03
:100E1000BB8B83E090E0A0E0B0E08C8B9D8BAE8B31
:100E2000BF8B1CA21DA21EA21FA2188E198E1A8E85
:100E30001B8E1C8E1D8E1E8E1F8E8AE097EDA3E2E8
:100E4000BCE388A399A3AAA3BBA3DF91CF911F9171
:100E50000F9108951F920F920FB60F9211240BB6A7
:100E60000F922F933F934F935F936F937F938F9343
:100E70009F93AF93BF93EF93FF9386EC97E017DBBD
:100E8000FF91EF91BF91AF919F918F917F916F9162
:100E90005F914F913F912F910F900BBE0F900FBE1E
:100EA0000F901F9018951F920F920FB60F9211245A
:100EB0000BB60F922F938F939F93EF93FF93E09135
:100EC000D607F091D7078081E091DC07F091DD072C
:100ED00082FD1DC090818091DF078F5F8F7320910D
:100EE000E007821741F0E091DF07F0E0EA53F84FA6
:100EF000958F8093DF07FF91EF919F918F912F91B5
:100F00000F900BBE0F900FBE0F901F901895808111
:100F1000F2CF1F920F920FB60F9211242F933F938F
:100F20008F939F93AF93BF938091B3059091B40536
:100F3000A091B505B091B6053091B20523E0230F1D
:100F40002D3758F50196A11DB11D2093B205809350
:100F5000B3059093B405A093B505B093B605809101
:100F6000B7059091B805A091B905B091BA05019661
:100F7000A11DB11D8093B7059093B805A093B90545
:100F8000B093BA05BF91AF919F918F913F912F91EF
:100F90000F900FBE0F901F90189526E8230F029612
:100FA000A11DB11DD2CF1F920F920FB60F92112427
:100FB0000BB60F922F933F934F935F936F937F9353
:100FC0008F939F93AF93BF93EF93FF938091B9005B
:100FD000887F803609F44CC008F03FC0883209F49D
:100FE000A6C028F5803109F49AC0C8F4882309F412
:100FF000F6C0883009F493C0FF91EF91BF91AF9193
:101000009F918F917F916F915F914F913F912F9120
:101010000F900BBE0F900FBE0F901F901895883148
:1010200009F485C0803241F78093BF0714C0803433
:1010300009F49AC040F48033B9F38833E9F6809319
:10104000BF0785ECADC0803509F482C0883509F44E
:1010500093C0883489F63FDBCFCF883909F48AC042
:1010600038F5883729F050F4883611F0803721F6AA
:1010700083E08093C1071092B10555C0883809F408
:1010800079C0803919F0803809F0B6CF8091B10568
:101090008F3F09F46FC0E091B10581E08E0F80931E
:1010A000B1058091BB00F0E0EE54FB4F80833BC064
:1010B000803B39F0D0F4803A09F477C0883A09F0DF
:1010C0009BCF84E08093C1071092B1041092B004CA
:1010D000F0E0E0E019958091B00481110FC081E04B
:1010E0008093B0041092B10309C0803C09F4A9CFE9
:1010F000883C09F4A6CF883B09F07ECFE091B1048B
:1011000081E08E0F8093B104F0E0EF54FC4F8081BA
:101110008093BB009091B1048091B00429C080916C
:10112000BC078093BB0085EC8093BC0065CF909199
:10113000BE078091BD07981758F5E091BE0781E082
:101140008E0F8093BE07F0E0E454F94F8081E9CF21
:10115000E091BE0781E08E0F8093BE078091BB00B7
:10116000F0E0E454F94F80839091BE078091BD0771
:101170009817C8F285E8D8CFE091BE0781E08E0FBE
:101180008093BE078091BB00F0E0E454F94F808368
:101190008091C00781115FCF81E08093BB0784EA13
:1011A0008093BC001092C10727CF85EC8093BC00D0
:1011B0001092C1078091B1058F3F31F0E091B105E8
:1011C000F0E0EE54FB4F10826091B10570E082EBCD
:1011D00094E0F0E0E0E019951092B1050DCF109287
:1011E000BF0739CFE6ECF7E01382128248EE53E0F6
:1011F00060E070E044835583668377838AE092E001
:101200009183808385EC90E09587848784EC90E0DF
:101210009787868780EC90E0918B808B81EC90E0C3
:10122000938B828B82EC90E0958B848B86EC90E0A4
:10123000978B868B118E128E138E148EA3E6B8E0D8
:1012400013961C921E92129714964D935D936D9374
:101250007C9317978CE192E011969C938E93EFE626
:10126000F8E08EE292E09183808347E350E060E013
:1012700070E0468357836087718788E28383B583F4
:10128000A4830895CF93DF93CDB7DEB7A4970FB6AD
:10129000F894DEBF0FBECDBF789484B5826084BD64
:1012A00084B5816084BD85B5826085BD85B581606A
:1012B00085BD80916E00816080936E0010928100E8
:1012C00080918100826080938100809181008160A3
:1012D0008093810080918000816080938000809164
:1012E000B10084608093B1008091B00081608093F0
:1012F000B000809191008260809391008091910074
:101300008160809391008091900081608093900033
:101310008091A10082608093A1008091A1008160F2
:101320008093A1008091A00081608093A0008091B3
:10133000210182608093210180912101816080934D
:1013400021018091200181608093200180917A00A9
:10135000846080937A0080917A00826080937A0022
:1013600080917A00816080937A0080917A00806811
:1013700080937A001092C100E091D607F091D707D0
:1013800082E08083E091D207F091D3071082E09150
:10139000D407F091D50780E180831092DE07E091B9
:1013A000DA07F091DB0786E08083E091D807F091BF
:1013B000D907808180618083E091D807F091D907B7
:1013C000808188608083E091D807F091D90780817F
:1013D00080688083E091D807F091D90780818F7D64
:1013E00080838EE492E03FDB8AE392E03CDB109264
:1013F000BC051092BB051092C3071092C207109251
:10140000C10781E08093C0071092BB0784E10E946E
:101410005D0185E10E945D018091B9008E7F80931E
:10142000B9008091B9008D7F8093B9008CE08093E2
:10143000B80085E48093BC0097DA803A61F068EEEA
:1014400073E080E090E015D98FDA803A21F086E6EB
:1014500092E0BBDAFFCF90E080E079DA60E28FE3E0
:1014600090E048DA6EE170E080E090E002D97CDA4A
:10147000803A29F06AE070E080E090E0F7CF62E324
:1014800070E080E090E0F5D860E08EE390E032DA42
:101490006AE070E080E090E0ECD860E087E090E007
:1014A00029DA60E08FE390E025DA6AE070E080E01E
:1014B00090E0DFD88CE090E04ADA64E170E080E010
:1014C00090E0D7D868EE73E080E090E0D2D8009149
:1014D000790810917A0890E080E039DA69E170E0EB
:1014E00080E090E0C6D860E087E090E003DA60E852
:1014F0008FE390E0FFD96AE070E080E090E0B9D837
:10150000C80125DA64E170E080E090E0B2D8BE0165
:101510006F5F7F4F8FE698E07BDB83EA92E055DADE
:101520006D897E898F89988D44E0A9DA87EA92E0F7
:101530004CDA698D7A8D8B8D9C8D44E0A0DA8CEA33
:1015400092E043DA6D8D7E8D8F8D98A144E097DA1D
:101550008AE392E088DA64E670E080E090E089D87F
:1015600033D8D5CF5058BB27AA270ED070C161D130
:1015700030F066D120F031F49F3F11F41EF456C1D3
:101580000EF4E095E7FB4CC1E92F72D180F3BA1756
:10159000620773078407950718F071F49EF58AC1F6
:1015A0000EF4E0950B2EBA2FA02D0B01B90190017E
:1015B0000C01CA01A0011124FF27591B99F0593FC2
:1015C00050F4503E68F11A16F040A22F232F342F0A
:1015D0004427585FF3CF469537952795A795F04058
:1015E0005395C9F77EF41F16BA0B620B730B840B6D
:1015F000BAF09150A1F0FF0FBB1F661F771F881F25
:10160000C2F70EC0BA0F621F731F841F48F487957C
:1016100077956795B795F7959E3F08F0B3CF93956B
:10162000880F08F09927EE0F979587950895D4D0E5
:1016300008F481E008950CD00AC102D140F0F9D03D
:1016400030F021F45F3F19F0EBC0511134C1EEC00E
:101650000FD198F39923C9F35523B1F3951B550B7B
:10166000BB27AA2762177307840738F09F5F5F4F75
:10167000220F331F441FAA1FA9F333D00E2E3AF0B6
:10168000E0E830D091505040E695001CCAF729D0D0
:10169000FE2F27D0660F771F881FBB1F261737071F
:1016A0004807AB07B0E809F0BB0B802DBF01FF274F
:1016B00093585F4F2AF09E3F510568F0B1C0FBC0C0
:1016C0005F3FECF3983EDCF3869577956795B79589
:1016D000F7959F5FC9F7880F911D9695879597F9A4
:1016E0000895E1E0660F771F881FBB1F621773071D
:1016F0008407BA0720F0621B730B840BBA0BEE1F32
:1017000088F7E0950895BCD088F09F5790F0B92FE6
:101710009927B751A0F0D1F0660F771F881F991F46
:101720001AF0BA95C9F712C0B13081F0C3D0B1E058
:101730000895C0C0672F782F8827B85F39F0B93F68
:10174000CCF3869577956795B395D9F73EF4909548
:101750008095709561957F4F8F4F9F4F0895E894C6
:1017600009C097FB3EF490958095709561957F4FE9
:101770008F4F9F4F9923A9F0F92F96E9BB27939597
:10178000F695879577956795B795F111F8CFFAF4A7
:10179000BB0F11F460FF1BC06F5F7F4F8F4F9F4FD8
:1017A00016C0882311F096E911C0772321F09EE836
:1017B000872F762F05C0662371F096E8862F70E09C
:1017C00060E02AF09A95660F771F881FDAF7880F76
:1017D0009695879597F90895990F0008550FAA0BCC
:1017E000E0E8FEEF16161706E807F907C0F0121634
:1017F0001306E407F50798F0621B730B840B950B37
:1018000039F40A2661F0232B242B252B21F408958B
:101810000A2609F4A140A6958FEF811D811D089528
:1018200097F99F6780E870E060E008959FEF80EC93
:10183000089500240A941616170618060906089536
:1018400000240A9412161306140605060895092E9C
:101850000394000C11F4882352F0BB0F40F4BF2B0B
:1018600011F460FF04C06F5F7F4F8F4F9F4F08954B
:1018700057FD9058440F551F59F05F3F71F0479541
:10188000880F97FB991F61F09F3F79F08795089526
:10189000121613061406551FF2CF4695F1DF08C045
:1018A000161617061806991FF1CF86957105610562
:1018B00008940895E894BB2766277727CB0197F90A
:1018C00008958ADF08F48FEF08950BD0C0CFB1DF01
:1018D00028F0B6DF18F0952309F0A2CFA7CF112486
:1018E000EACFC6DFA0F3959FD1F3950F50E0551FC7
:1018F000629FF001729FBB27F00DB11D639FAA2765
:10190000F00DB11DAA1F649F6627B00DA11D661FB3
:10191000829F2227B00DA11D621F739FB00DA11DD4
:10192000621F839FA00D611D221F749F3327A00D8E
:10193000611D231F849F600D211D822F762F6A2F2A
:1019400011249F5750408AF0E1F088234AF0EE0FAF
:10195000FF1FBB1F661F771F881F91505040A9F7BC
:101960009E3F510570F05CCFA6CF5F3FECF3983EF1
:10197000DCF3869577956795B795F795E7959F5F23
:10198000C1F7FE2B880F911D9695879597F90895BD
:1019900023DF880B990B0895A1E21A2EAA1BBB1B0B
:1019A000FD010DC0AA1FBB1FEE1FFF1FA217B3072B
:1019B000E407F50720F0A21BB30BE40BF50B661F41
:1019C000771F881F991F1A9469F760957095809505
:1019D00090959B01AC01BD01CF010895EE0FFF1F53
:1019E000881F8BBF0790F691E02D19940F931F93DA
:1019F000CF93DF938230910510F482E090E0E09184
:101A00007D08F0917E0830E020E0B0E0A0E0309763
:101A100099F42115310509F44AC0281B390B2430EB
:101A20003105D8F58A819B816115710589F1FB012A
:101A300093838283FE0111C0408151810281138111
:101A400048175907E0F04817590799F4109761F0C3
:101A500012960C93129713961C933296CF01DF9136
:101A6000CF911F910F91089500937D0810937E08E8
:101A7000F4CF2115310551F04217530738F0A90171
:101A8000DB019A01BD01DF01F801C1CFEF01F9CF00
:101A900090937E0880937D08CDCFFE01E20FF31F67
:101AA000819391932250310939832883D7CF209194
:101AB0007B0830917C08232B41F420910202309165
:101AC000030230937C0820937B0820910002309120
:101AD00001022115310541F42DB73EB740910402B2
:101AE00050910502241B350BE0917B08F0917C0896
:101AF000E217F307A0F42E1B3F0B2817390778F0E5
:101B0000AC014E5F5F4F2417350748F04E0F5F1F43
:101B100050937C0840937B08819391939FCFF0E092
:101B2000E0E09CCFCF93DF930097E9F0FC01329780
:101B300013821282A0917D08B0917E08ED0130E001
:101B400020E01097A1F420813181820F931F209112
:101B50007B0830917C082817390709F061C0F093A1
:101B60007C08E0937B08DF91CF910895EA01CE17BE
:101B7000DF07E8F54A815B819E0141155105B1F708
:101B8000E901FB83EA8349915991C40FD51FEC17F2
:101B9000FD0761F4808191810296840F951FE90110
:101BA00099838883828193819B838A83F0E0E0E03C
:101BB00012968D919C9113970097B9F52D913C91B8
:101BC0001197CD010296820F931F20917B083091CF
:101BD0007C082817390739F6309751F510927E089E
:101BE00010927D08B0937C08A0937B08BCCFD38370
:101BF000C28340815181840F951FC817D90761F4B2
:101C00004E5F5F4F88819981480F591F51834083F0
:101C10008A819B81938382832115310509F0B0CF9E
:101C2000F0937E08E0937D089ECFFD01DC01C0CFDC
:101C300013821282D7CFFB01DC014150504048F0A3
:101C400001900D920020C9F701C01D9241505040F3
:081C5000E0F70895F894FFCFBE
:101C580000007F088000000000007902E401110202
:101C6800C50242022002340200000000F303C70349
:101C7800E2049D03C003AD039E0300000000690356
:101C880007066A030806E6060D0A006E616E00691B
:101C98006E66006F766600424E4F303535004F72E3
:101CA80069656E746174696F6E2053656E736F72C7
:101CB8002054657374004F6F6F70732C206E6F2003
:101CC800424E4F3035352064657465637465642011
:101CD8002E2E2E20436865636B20796F75722077EE
:101CE8006972696E67206F7220493243204144440B
:101CF800522100583A200009593A2000095A3A203E
:021D08000000D9
:020000023000CC
:10E000000D9489F10D94B2F10D94B2F10D94B2F129
:10E010000D94B2F10D94B2F10D94B2F10D94B2F1F0
:10E020000D94B2F10D94B2F10D94B2F10D94B2F1E0
:10E030000D94B2F10D94B2F10D94B2F10D94B2F1D0
:10E040000D94B2F10D94B2F10D94B2F10D94B2F1C0
:10E050000D94B2F10D94B2F10D94B2F10D94B2F1B0
:10E060000D94B2F10D94B2F10D94B2F10D94B2F1A0
:10E070000D94B2F10D94B2F10D94B2F10D94B2F190
:10E080000D94B2F10D94B2F10D94B2F10D94B2F180
:10E090000D94B2F10D94B2F10D94B2F10D94B2F170
:10E0A0000D94B2F10D94B2F10D94B2F10D94B2F160
:10E0B0000D94B2F10D94B2F10D94B2F10D94B2F150
:10E0C0000D94B2F10D94B2F10D94B2F10D94B2F140
:10E0D0000D94B2F10D94B2F10D94B2F10D94B2F130
:10E0E0000D94B2F141546D656761323536300041AF
:10E0F000726475696E6F206578706C6F72657220DE
:10E1000073746B3530305632206279204D4C530099
:10E11000426F6F746C6F616465723E004875683F52
:10E1200000436F6D70696C6564206F6E203D200048
:10E130004350552054797065202020203D20005FF9
:10E140005F4156525F415243485F5F3D2000415658
:10E1500052204C696243205665723D20004743437C
:10E160002056657273696F6E203D20004350552024
:10E1700049442020202020203D20004C6F7720663D
:10E18000757365202020203D20004869676820665F
:10E190007573652020203D200045787420667573D6
:10E1A00065202020203D20004C6F636B2066757336
:10E1B000652020203D20004D617220203720323024
:10E1C000313300312E362E3800342E332E350056A2
:10E1D00023202020414444522020206F7020636F70
:10E1E00064652020202020696E73747275637469E1
:10E1F0006F6E2061646472202020496E74657272B3
:10E20000757074006E6F20766563746F7200726A49
:10E210006D702020006A6D70200057686174207056
:10E220006F72743A00506F7274206E6F7420737541
:10E2300070706F72746564004D7573742062652030
:10E2400061206C6574746572002000577269747483
:10E25000696E672045450052656164696E672045B7
:10E26000450045452065727220636E743D00504F35
:10E27000525400303D5A65726F2061646472003FF1
:10E280003D43505520737461747300403D454550C3
:10E29000524F4D207465737400423D426C696E6B41
:10E2A000204C454400453D44756D70204545505215
:10E2B0004F4D00463D44756D7020464C415348001B
:10E2C000483D48656C70004C3D4C69737420492F83
:10E2D0004F20506F72747300513D51756974005234
:10E2E0003D44756D702052414D00563D73686F7707
:10E2F00020696E7465727275707420566563746FF0
:10E30000727300593D506F727420626C696E6B00BD
:10E310002A0011241FBECFEFD1E2DEBFCDBF01E046
:10E320000CBF12E0A0E0B2E0EEE1FDEF03E00BBFB6
:10E3300002C007900D92A030B107D9F712E0A0E01B
:10E34000B2E001C01D92AE30B107E1F70F9460F367
:10E350000D948DFE01E20EBF0FEF0DBF11241FBE05
:10E360000D9460F30D9400F020E030E040ED57E0B4
:10E3700005C0FA013197F1F72F5F3F4F2817390792
:10E38000C0F308959C01260F311DC901A0E0B0E043
:10E390002F5F3F4FABBFFC018791882361F08093D3
:10E3A000C6008091C00086FFFCCF8091C0008064D1
:10E3B0008093C000EACF08958DE08093C6008091DD
:10E3C000C00086FFFCCF8091C00080648093C000B5
:10E3D0008AE08093C6008091C00086FFFCCF8091C8
:10E3E000C00080648093C00008950F94C2F10F9420
:10E3F000DCF10895FC019081992359F09093C600B7
:10E400008091C00086FFFCCF8091C0008064809323
:10E41000C0003196992379F70895282F982F929567
:10E420009F70892F805D8A3308F0895F8093C600D2
:10E430008091C00086FFFCCF8091C00080648093F3
:10E44000C000822F8F70982F905D9A3308F0995FEB
:10E450009093C6008091C00086FFFCCF8091C000E1
:10E4600080648093C00008959C01FB01853691056E
:10E470001CF46330710594F0C90164E670E00F94F8
:10E480002EFE605D7F4F6093C6008091C00086FFC6
:10E49000FCCF8091C00080648093C0002B30310598
:10E4A00014F43297B4F0C90164E670E00F942EFEC4
:10E4B0006AE070E00F942EFE605D7F4F6093C600AF
:10E4C0008091C00086FFFCCF8091C0008064809363
:10E4D000C000C9016AE070E00F942EFEC0968093E0
:10E4E000C6008091C00086FFFCCF8091C000806490
:10E4F0008093C00008951F93182F8EE692EE60E07F
:10E500000F94C2F11093C6008091C00086FFFCCF2B
:10E510008091C00080648093C0000F94DCF11F9153
:10E5200008952F923F924F925F926F927F928F92B7
:10E530009F92AF92BF92CF92DF92EF92FF920F9392
:10E540001F93DF93CF93CDB7DEB762970FB6F894E2
:10E55000DEBF0FBECDBF382E622ECA01DB015C01CB
:10E560006D01772420E2222E2E010894411C511CBB
:10E570008BC081E0A81680E0B80681E0C80680E084
:10E58000D80628F0C601AA27BB270F940DF2BB2797
:10E59000AD2D9C2D8B2D0F940DF28A2D0F940DF225
:10E5A0002092C6008091C00086FFFCCF8091C00001
:10E5B00080648093C0009DE29093C6008091C0006B
:10E5C00086FFFCCF8091C00080648093C0002092C1
:10E5D000C6008091C00086FFFCCF8091C00080649F
:10E5E0008093C00019828601750188249924A1E0D6
:10E5F0003A1651F03A1620F0B2E03B1661F409C029
:10E600000BBFF701779007C0C7010F9477FE782EF4
:10E6100002C0F7017080872D0F940DF22092C60082
:10E620008091C00086FFFCCF8091C0008064809301
:10E63000C000872D8052F401EF70F0708F3520F408
:10E64000E40DF51D708204C0E40DF51D8EE280839B
:10E650000894E11CF11C011D111D0894811C911CE2
:10E6600090E18916910409F0C2CF80E190E0A0E02A
:10E67000B0E0A80EB91ECA1EDB1E198AC2010F9493
:10E68000FAF10F94DCF16A94662009F072CF629679
:10E690000FB6F894DEBF0FBECDBFCF91DF911F91B3
:10E6A0000F91FF90EF90DF90CF90BF90AF909F9031
:10E6B0008F907F906F905F904F903F902F90089534
:10E6C0002F923F924F925F926F927F928F929F9282
:10E6D000AF92BF92CF92DF92EF92FF920F931F9370
:10E6E000DF93CF93CDB7DEB7CD53D1400FB6F894BB
:10E6F000DEBF0FBECDBF01E20EBF0FEF0DBF94B75F
:10E70000F894A89514BE80916000886180936000A1
:10E7100010926000789493FF05C0E0910002F091A0
:10E7200001021995279A2F9A8091C00082608093E8
:10E73000C00080E18093C40088E18093C1000000A4
:10E74000EE24FF24870144E0A42EB12CCC24DD2448
:10E7500024C0C5010197F1F70894E11CF11C011DCB
:10E76000111D21E2E2162EE4F20620E0020720E06D
:10E77000120718F031E0C32ED12CC801B70127ECE5
:10E780003BE140E050E00F9441FE611571058105C9
:10E79000910519F485B1805885B98091C00087FD35
:10E7A00003C0C114D104A9F2A6014F5F5F4FC25E3E
:10E7B000DE4F59834883CE51D140C25EDE4F8881FF
:10E7C0009981CE51D140019711F00D9410FEC05D9A
:10E7D000DE4F19821882C053D14060E0C15DDE4F28
:10E7E0001882CF52D14088249924C35DDE4F19820C
:10E7F0001882CD52D140C05EDE4F188219821A8233
:10E800001B82C052D140CE5CDE4F188219821A8220
:10E810001B82C253D140EE24FF2487010BBFF701B6
:10E8200007911691C45CDE4F19830883CC53D14005
:10E830000D940BFEC25EDE4F28813981CE51D1404E
:10E840002130310509F52091C600C25EDE4F1982E4
:10E850001882CE51D14022C02F5F3F4F4F4F5F4FA4
:10E86000213082E138078AE7480780E0580780F0C6
:10E87000C45CDE4FE881F981CC53D140EF5FFF4F9C
:10E8800019F0EE27FF27099420E030E040E050E047
:10E890008091C00087FFE0CF2091C600C35DDE4FAE
:10E8A00048815981CD52D1404F5F5F4FC35DDE4FEC
:10E8B00059834883CD52D140213209F063C64A3092
:10E8C000510508F05FC60894811C911C53E0851621
:10E8D000910409F059C600E010E018C081E280936D
:10E8E000C6008091C00086FFFCCF8091C00080648C
:10E8F0008093C0002F5F3F4F2931310579F70F9486
:10E90000DCF10F5F1F4F0530110519F020E030E0FA
:10E91000E5CF10920A0210920B0210920C02109294
:10E920000D02109206021092070210920802109235
:10E930000902109202021092030210920402109235
:10E9400005028FEE90EE60E00F94F5F180E191EE1C
:10E9500060E00F94C2F18091C00087FFFCCF9091DE
:10E96000C600903608F09F759032B8F09093C600BC
:10E970008091C00086FFFCCF8091C00080648093AE
:10E98000C000A0E2A093C6008091C00086FFFCCF2B
:10E990008091C00080648093C000983409F4D7C18E
:10E9A0009934B8F4923409F459C1933458F490333B
:10E9B00019F1903308F4E3C59F33A1F1903409F0C5
:10E9C000DEC5BDC0953409F470C1963409F0D7C5D1
:10E9D00098C1923509F42BC2933538F49C3409F46C
:10E9E000F5C1913509F0CBC518C2963509F445C279
:10E9F000993509F0C4C567C483E792EE62E00F94CD
:10EA0000F5F110920602109207021092080210927D
:10EA1000090210920A0210920B0210920C0210923C
:10EA20000D0213C18FE792EE62E00F94F5F18FEEC5
:10EA300090EE60E00F94F5F181E291EE60E00F94CA
:10EA4000C2F187EB91EE60E00F94F5F180E391EE77
:10EA500060E00F94C2F184EE90EE60E00F94F5F167
:10EA60008FE391EE60E00F94C2F186E090E061E008
:10EA700070E00F9434F20F94DCF18DE591EE60E0DC
:10EA80000F94C2F189EC91EE60E00F94F5F18EE401
:10EA900091EE60E00F94C2F183EC91EE60E00F9490
:10EAA000F5F18CE691EE60E00F94C2F18EE10F94E7
:10EAB0000DF288E90F940DF281E00F940DF20F949E
:10EAC000DCF18BE791EE60E00F94C2F119E0E0E039
:10EAD000F0E010935700E4918E2F0F940DF20F94F5
:10EAE000DCF18AE891EE60E00F94C2F1E3E0F0E03F
:10EAF00010935700E4918E2F0F940DF20F94DCF1D8
:10EB000089E991EE60E00F94C2F1E2E0F0E0109349
:10EB10005700E4918E2F0F940DF20F94DCF188EAE8
:10EB200091EE60E00F94C2F1E1E0F0E01093570045
:10EB30001491812F0F940DF20F94DCF107CF8BE825
:10EB400092EE62E00F94F5F18BE492EE60E00F94A8
:10EB5000F5F10F94DCF100E010E019C0C8016F2D51
:10EB60000F947FFEFF2031F489E492EE60E00F9471
:10EB7000C2F10BC0F092C6008091C00086FFFCCFAE
:10EB80008091C00080648093C0000F5F1F4FC80158
:10EB900081519F41A0E0B0E0ABBFFC01F790BAE229
:10EBA000FB1621F0E2E000301E07C1F60F94DCF105
:10EBB0000F94DCF187E592EE60E00F94F5F10F948D
:10EBC000DCF1CC24DD2400E010E01EC0C8010F946D
:10EBD00077FEF82E882331F489E492EE60E00F94FA
:10EBE000C2F10BC08093C6008091C00086FFFCCFAD
:10EBF0008091C00080648093C000FE1419F00894D6
:10EC0000C11CD11C0F5F1F4FC80181519F41A0E063
:10EC1000B0E0ABBFFC01E790FAE2EF1621F022E092
:10EC20000030120799F60F94DCF10F94DCF182E6C4
:10EC300092EE60E00F94C2F1C60161E070E00F94C3
:10EC400034F20F94DCF10F94DCF110920202109276
:10EC50000302109204021092050278CE89E992EE26
:10EC600062E00F94F5F1279A2F9A16C02F9880E052
:10EC700090E0E0EDF7E03197F1F7019684369105E9
:10EC8000C1F72F9A80E090E0E0EDF7E03197F1F7DF
:10EC9000019684369105C1F78091C00087FFE6CFC9
:10ECA0008091C00087FFFCCF64C485EA92EE62E0E9
:10ECB0000F94F5F140910202509103026091040219
:10ECC0007091050281E020E10F9491F2809102029F
:10ECD00090910302A0910402B091050280509F4FD1
:10ECE000AF4FBF4F8093020290930302A0930402A0
:10ECF000B093050280509041A040B04008F426CE69
:10ED0000A4CF83EB92EE62E00F94F5F140910602FE
:10ED100050910702609108027091090280E020E1A1
:10ED20000F9491F28091060290910702A09108023F
:10ED3000B091090280509F4FAF4FBF4F80930602A2
:10ED400090930702A0930802B0930902FFCD80ECD4
:10ED500092EE62E00F94F5F183E792EE60E00F949B
:10ED6000F5F18FE792EE60E00F94F5F18BE892EE0B
:10ED700060E00F94F5F189E992EE60E00F94F5F10F
:10ED800085EA92EE60E00F94F5F183EB92EE60E09D
:10ED90000F94F5F180EC92EE60E00F94F5F187ECC2
:10EDA00092EE60E00F94F5F188ED92EE60E00F9442
:10EDB000F5F18FED92EE60E00F94F5F18AEE92EEB0
:10EDC00060E00F94F5F183E093EEBDCD87EC92EE19
:10EDD00062E00F94F5F181E40F947BF282E40F94EA
:10EDE0007BF283E40F947BF284E40F947BF285E45E
:10EDF0000F947BF286E40F947BF287E40F947BF20E
:10EE000088E40F947BF28AE40F947BF28BE40F94F6
:10EE10007BF28CE40F947BF299CD88ED92EE62E068
:10EE20000F94F5F1772473948824992409C48FED05
:10EE300092EE62E00F94F5F140910A0250910B02BC
:10EE400060910C0270910D0282E020E10F9491F22A
:10EE500080910A0290910B02A0910C02B0910D02D8
:10EE600080509F4FAF4FBF4F80930A0290930B0289
:10EE7000A0930C02B0930D0269CD8AEE92EE62E08F
:10EE80000F94F5F184EE90EE60E00F94F5F18FECC5
:10EE900091EE60E00F94F5F1662477244301CC5D98
:10EEA000DE4F19821882C452D140D401C301B695F5
:10EEB000A79597958795CA5DDE4F88839983AA8326
:10EEC000BB83C652D140CC5DDE4FA881B981C4520C
:10EED000D1401196CC5DDE4FB983A883C452D14096
:10EEE000CD0162E070E00F9434F2B0E2B093C6005E
:10EEF0008091C00086FFFCCF8091C0008064809329
:10EF0000C000EDE2E093C6008091C00086FFFCCF18
:10EF10008091C00080648093C000F0E2F093C6004E
:10EF20008091C00086FFFCCF8091C00080648093F8
:10EF3000C000CA5DDE4FE880F9800A811B81C6529D
:10EF4000D140BB27A12F902F8F2D0F940DF2CA5DBA
:10EF5000DE4F8881C652D1400F940DF2B0E2FB2EF5
:10EF6000F092C6008091C00086FFFCCF8091C00067
:10EF700080648093C0000DE30093C6008091C000C0
:10EF800086FFFCCF8091C00080648093C00010E2B7
:10EF90001093C6008091C00086FFFCCF8091C00016
:10EFA00080648093C0008BBEF3012791C65DDE4F65
:10EFB0002883CA52D140A22EBB24CC24DD2408943D
:10EFC000611C711C811C911C8BBEF3018791282E42
:10EFD0003324442455240894611C711C811C911C09
:10EFE0008BBEF3013791C55DDE4F3883CB52D140E4
:10EFF0000894611C711C811C911C8BBEF30147910C
:10F00000C45DDE4F4883CC52D140ADEFEA2EAFEF66
:10F01000FA2EAFEF0A2FAFEF1A2F6E0C7F1C801E57
:10F02000911E142D032DF22CEE24EA0CFB1C0C1D5A
:10F030001D1D0F940DF220E22093C6008091C000A8
:10F0400086FFFCCF8091C00080648093C000C65DC5
:10F05000DE4F8881CA52D1400F940DF230E23093D6
:10F06000C6008091C00086FFFCCF8091C000806404
:10F070008093C000C45DDE4F8881CC52D1400F9494
:10F080000DF240E24093C6008091C00086FFFCCFA5
:10F090008091C00080648093C000C55DDE4F888190
:10F0A000CB52D1400F940DF250E25093C6008091A4
:10F0B000C00086FFFCCF8091C00080648093C000B8
:10F0C0008FEFE8168FEFF80680E0080780E018075A
:10F0D00031F484E092EE60E00F94C2F1DFC0D80119
:10F0E000C7018070907CA070B0708050904CA040A0
:10F0F000B040D1F52FEF3FE340E050E0E222F322B1
:10F1000004231523CA5DDE4FA880B980CA80DB8046
:10F11000C652D140AE0CBF1CC01ED11EAA0CBB1CD7
:10F12000CC1CDD1C8EE092EE60E00F94C2F1BB2798
:10F13000A12F902F8F2D0F940DF28E2D0F940DF285
:10F1400030E23093C6008091C00086FFFCCF8091F2
:10F15000C00080648093C0004EE34093C60080915D
:10F16000C00086FFFCCF87C08EE09EEFA0E0B0E03D
:10F17000E822F9220A231B239CE0E91694E9F90608
:10F1800090E0090790E0190709F088C0C45DDE4FE0
:10F19000A881CC52D140EA2EFF2400E010E0102FCD
:10F1A0000F2DFE2CEE24C55DDE4FB881CB52D14031
:10F1B000EB0EF11C011D111DD601C501817090706F
:10F1C000A070B070DC0199278827E80EF91E0A1F8D
:10F1D0001B1F20EF30E040E050E0A222B322C42207
:10F1E000D52241E1AA0CBB1CCC1CDD1C4A95D1F7F1
:10F1F000EA0CFB1C0C1D1D1D81E090E0A0E0B0E0BE
:10F20000282239224A225B2235E1220C331C441C7D
:10F21000551C3A95D1F7E20CF31C041D151D57013E
:10F220006801AA0CBB1CCC1CDD1C85E192EE60E0E1
:10F230000F94C2F1C801AA27BB270F940DF2BB2778
:10F24000A12F902F8F2D0F940DF28E2D0F940DF274
:10F2500090E29093C6008091C00086FFFCCF809121
:10F26000C00080648093C000AEE3A093C60080918C
:10F27000C00086FFFCCF8091C00080648093C000F6
:10F28000C601AA27BB270F940DF2BB27AD2D9C2DDD
:10F290008B2D0F940DF28A2D0F940DF20F94DCF14B
:10F2A000CC5DDE4FE881F981C452D140F99709F471
:10F2B0004DCBF4E0EF2EF12C012D112D6E0C7F1CA7
:10F2C000801E911EF2CD83E093EE62E00F94F5F183
:10F2D0008AE192EE60E00F94C2F18091C00087FF56
:10F2E000FCCF1091C6001F751093C6008091C0001E
:10F2F00086FFFCCF8091C00080648093C0000F9493
:10F30000DCF1812F81548A3108F036C1163409F4BA
:10F3100095C0173490F4133409F44EC0143430F40B
:10F320001134F1F0123409F01DC130C0143409F465
:10F3300059C0153409F016C16BC01A3409F4C4C0A1
:10F340001B3438F4173409F48FC0183409F00AC19B
:10F35000A1C01B3409F4D2C01C3409F003C1E8C0B9
:10F360008FEF81B90DC082B1809582B980E090E0C5
:10F37000E0EDF7E03197F1F70196883C9105C1F790
:10F380008091C00087FFEFCF12B8EFC08FEF84B934
:10F390000DC085B1809585B980E090E0E0EDF7E0A3
:10F3A0003197F1F70196883C9105C1F78091C00033
:10F3B00087FFEFCF15B8D9C08FEF87B90DC088B1DF
:10F3C000809588B980E090E0E0EDF7E03197F1F7C3
:10F3D0000196883C9105C1F78091C00087FFEFCF6F
:10F3E00018B8C3C08FEF8AB90DC08BB180958BB9A7
:10F3F00080E090E0E0EDF7E03197F1F70196883C8E
:10F400009105C1F78091C00087FFEFCF1BB8ADC059
:10F410008FEF8DB90DC08EB180958EB980E090E0F0
:10F42000E0EDF7E03197F1F70196883C9105C1F7DF
:10F430008091C00087FFEFCF1EB897C08FEF80BBD1
:10F440000DC081B3809581BB80E090E0E0EDF7E0F6
:10F450003197F1F70196883C9105C1F78091C00082
:10F4600087FFEFCF11BA81C08FEF83BB0DC084B38C
:10F47000809584BB80E090E0E0EDF7E03197F1F714
:10F480000196883C9105C1F78091C00087FFEFCFBE
:10F4900014BA6BC08FEF809301010FC080910201FD
:10F4A00080958093020180E090E0E0EDF7E03197F5
:10F4B000F1F70196883C9105C1F78091C00087FF64
:10F4C000EDCF1092020151C08FEF809304010FC065
:10F4D0008091050180958093050180E090E0E0ED4A
:10F4E000F7E03197F1F70196883C9105C1F78091DB
:10F4F000C00087FFEDCF1092050137C08FEF8093DA
:10F5000007010FC08091080180958093080180E079
:10F5100090E0E0EDF7E03197F1F70196883C910536
:10F52000C1F78091C00087FFEDCF109208011DC088
:10F530008FEF80930A010FC080910B01809580931B
:10F540000B0180E090E0E0EDF7E03197F1F70196F4
:10F55000883C9105C1F78091C00087FFEDCF1092E4
:10F560000B0103C085E292EEEEC98091C00087FFD7
:10F57000FCCF8091C600EAC988E392EEE4C98CE131
:10F5800091EEE1C988249924933011F1943028F444
:10F59000913089F09230B8F408C0953061F195301F
:10F5A000F0F0963009F048C043C02B3109F042C951
:10F5B00091E06BE13FC96227C15DDE4F2883CF52E6
:10F5C000D14092E037C9B22FA0E0622793E032C960
:10F5D000822F90E0A82BB92B622794E02BC92E3004
:10F5E00009F039C3622795E0C05DDE4F19821882A9
:10F5F000C053D1401FC9E1E0F0E0EC0FFD1FC05D3A
:10F60000DE4F08811981C053D140E00FF11F2083E4
:10F610000F5F1F4FC05DDE4F19830883C053D14079
:10F6200062270A171B0709F005C9D80196E002C92D
:10F63000261709F010C303C0973009F0FBC87724E0
:10F640009981933109F412C19431C8F4963009F4C8
:10F65000D8C0973050F4923009F406C1933009F4C1
:10F660006DC0913009F059C253C0913109F477C08F
:10F67000923108F0BBC0903109F04FC2F5C098310B
:10F6800009F487C0993150F4953109F4EFC09531F0
:10F6900008F4C6C1963109F040C2C2C19A3109F4DA
:10F6A0006CC09A3108F491C09B3109F45BC09D3164
:10F6B00009F033C29D81903359F48F81882311F46E
:10F6C0009EE11CC0813011F091E018C098E916C08D
:10F6D000892F807591F0903539F4E0E0F0E089E011
:10F6E0008093570094910AC0983539F4E3E0F0E034
:10F6F00089E080935700949101C090E01A821B82A8
:10F700008D818C831D829E831F8227E030E009C299
:10F710001A8288E08B8381E48C8386E58D8382E581
:10F720008E8389E48F8383E5888780E589878FE5E9
:10F730008A8782E38B872BE030E0F3C18A818139AD
:10F7400041F0823941F0803911F48FE005C080E04A
:10F7500003C082E001C08AE01A828B8344C0772410
:10F76000739482C08D81882311F48EE12CC0813086
:10F7700011F081E028C088E926C01A82E1E0F0E0BB
:10F7800089E08093570084918B831C8224E030E0D1
:10F79000C8C18B81803589F48C81883039F4E2E0EE
:10F7A000F0E089E08093570084910DC0E0E0F0E044
:10F7B00089E080935700849106C0E3E0F0E089E09F
:10F7C0008093570084911A82DFCF8D81836C99E0FA
:10F7D000E1E0F0E0082E90935700E89507B600FCB2
:10F7E000FDCF1A821B8223E030E09BC180EC8A832C
:10F7F000CE5CDE4F188219821A821B82C253D1401E
:10F800008EC18A8190E0A0E0B0E0582F44273327D2
:10F8100022278B8190E0A0E0B0E0DC0199278827C7
:10F82000282B392B4A2B5B2B8D8190E0A0E0B0E098
:10F83000282B392B4A2B5B2B8C8190E0A0E0B0E089
:10F84000BA2FA92F982F8827282B392B4A2B5B2BCF
:10F85000220F331F441F551FC05EDE4F288339839C
:10F860004A835B83C052D1401A8259C13A81C95C34
:10F87000DE4F3883C753D140CA5CDE4F1882C6536F
:10F88000D1408B81C82EDD24CA5CDE4F488159816E
:10F89000C653D140C42AD52A933109F082C0CE5C28
:10F8A000DE4F88819981AA81BB81C253D1408050AB
:10F8B000904CA340B04030F583E0CE5CDE4FE88052
:10F8C000F9800A811B81C253D140F70100935B008C
:10F8D00080935700E89507B600FCFDCFCE5CDE4F65
:10F8E000088119812A813B81C253D14000501F4FAA
:10F8F0002F4F3F4FCE5CDE4F088319832A833B8313
:10F90000C253D140C05EDE4F488159816A817B81FC
:10F91000C052D140DE011B9631E08C9111962C91A2
:10F9200011971296C75CDE4F2883C953D140C85C3B
:10F93000DE4F1882C853D14090E0C85CDE4FE881AA
:10F94000F981C853D1408E2B9F2B0C01FA01609393
:10F950005B0030935700E89511244E5F5F4F6F4F67
:10F960007F4F0EEFE02E0FEFF02ECE0CDF1CC114F8
:10F97000D10499F685E0C05EDE4F088119812A81A5
:10F980003B81C052D140F80120935B008093570027
:10F99000E89507B600FCFDCF81E180935700E8951C
:10F9A00035C0C05EDE4F88819981AA81BB81C0527B
:10F9B000D140B695A795979587957C018601ABE0D8
:10F9C000AA2EB12CAC0EBD1E0BC0D5016D915D01F0
:10F9D000C7010F947FFE0894E11CF11C01501040F8
:10F9E0000115110591F7A60160E070E0440F551F65
:10F9F000661F771FC05EDE4FE880F9800A811B8199
:10FA0000C052D1404E0D5F1D601F711F1A82C05E33
:10FA1000DE4F488359836A837B83C052D1407FC0C5
:10FA2000FA80C55CDE4FF882CB53D140C65CDE4F16
:10FA30001882CA53D1408B81C82EDD24C65CDE4FAC
:10FA400008811981CA53D140C02AD12A1A828981DA
:10FA5000BE016D5F7F4F843121F59601C05EDE4FA0
:10FA6000E880F9800A811B81C052D1400BBFF701A9
:10FA700087919691DB018C9311969C936E5F7F4FDB
:10FA8000D801C7010296A11DB11DC05EDE4F88835B
:10FA90009983AA83BB83C052D14022503040F1F6F3
:10FAA00036C0C05EDE4F288139814A815B81C052F9
:10FAB000D1400894C108D108760100E010E0089414
:10FAC000C11CD11C0894E11CF11C011D111DE20E8A
:10FAD000F31E041F151F21BDBB27A52F942F832FB5
:10FAE00082BD2F5F3F4F4F4F5F4FF89A80B5DB01CC
:10FAF0008D93BD012E153F054007510761F7C05E8C
:10FB0000DE4F288339834A835B83C052D1409601FC
:10FB10002D5F3F4FFB01108204C080EC8A8322E0FE
:10FB200030E08BE18093C6008091C00086FFFCCF5F
:10FB30008091C00080648093C000C15DDE4FF88179
:10FB4000CF52D140F093C6008091C00086FFFCCF19
:10FB50008091C00080648093C000432F3093C60022
:10FB60008091C00086FFFCCF8091C00080648093AC
:10FB7000C000922F2093C6008091C00086FFFCCF6A
:10FB80008091C00080648093C0008EE08093C600A6
:10FB90008091C00086FFFCCF8091C000806480937C
:10FBA000C00065E1C15DDE4FE880CF52D1406E25D7
:10FBB00069276427FE01319610C090819093C6009A
:10FBC0008091C00086FFFCCF31968091C000806498
:10FBD0008093C0006927215030402115310569F715
:10FBE0006093C6008091C00086FFFCCF8091C0006A
:10FBF00080648093C00085B1805885B9772081F4F6
:10FC0000C15DDE4F0881CF52D1400F5FC15DDE4F35
:10FC10000883CF52D14090E0A0E0B0E00D941AF4F8
:10FC200027982F9880E090E020ED37E0F901319798
:10FC3000F1F7019684369105C9F700008091C00064
:10FC40008D7F8093C00081E180935700E895EE2777
:10FC5000FF270994FFCF90E00D941AF497FB092E2B
:10FC600007260AD077FD04D02ED006D000201AF443
:10FC7000709561957F4F0895F6F7909581959F4F08
:10FC80000895A1E21A2EAA1BBB1BFD010DC0AA1FDD
:10FC9000BB1FEE1FFF1FA217B307E407F50720F0F5
:10FCA000A21BB30BE40BF50B661F771F881F991F70
:10FCB0001A9469F760957095809590959B01AC01B9
:10FCC000BD01CF010895AA1BBB1B51E107C0AA1FAC
:10FCD000BB1FA617B70710F0A61BB70B881F991FED
:10FCE0005A95A9F780959095BC01CD010895F99991
:10FCF000FECF92BD81BDF89A992780B50895262F31
:10FD0000F999FECF1FBA92BD81BD20BD0FB6F89400
:0EFD1000FA9AF99A0FBE01960895F894FFCF63
:040000033000E000E9
:00000001FF
