:10000000D2C00000FEC00000FCC00000FAC000002A
:10001000F8C00000F6C00000F4C00000F2C000000C
:10002000F0C00000EEC00000ECC00000EAC000001C
:10003000E8C00000E6C00000E4C00000E2C000002C
:10004000E0C00000DEC00000DCC00000DAC000003C
:10005000D8C00000D6C00000D4C0000003C2000019
:10006000D0C0000072C2000047C20000CAC0000039
:10007000C8C00000C6C00000C4C00000C2C000006C
:10008000C0C00000BEC00000BCC00000BAC000007C
:10009000B8C00000B6C00000B4C00000B2C000008C
:1000A000B0C00000AEC00000ACC00000AAC000009C
:1000B000A8C00000A6C00000A4C00000A2C00000AC
:1000C000A0C000009EC000009CC000009AC00000BC
:1000D00098C0000096C0000094C0000092C00000CC
:1000E00090C0000000002200250028002B002E00F8
:1000F0003100340002010000050108010B0100007D
:100100002100240027002A002D00300033000101C7
:100110000000040107010A01050505050705080897
:100120000808020202020A0A080804040404010181
:100130000101010101010303030303030303040796
:1001400007070C0C0C0C0C0C0C0C0202020206062D
:100150000606060606060B0B0B0B0B0B0B0B010220
:1001600010202008081020401020408002010201C9
:100170000804020101020408102040808040201081
:1001800008040201800402018040201008040201DA
:100190000804020101020408102040800102040842
:1001A00010204080BD0311241FBECFEFD1E2DEBF7F
:1001B000CDBF00E00CBF12E0A0E0B2E0E8EEF7E057
:1001C00000E00BBF02C007900D92A231B107D9F732
:1001D00022E0A2E1B2E001C01D92A83BB207E1F724
:1001E00010E0C3EDD0E000E005C021970109802FA9
:1001F000FE01F0D2C23DD10780E00807B1F7DBD1A4
:10020000F1C2FECEAF92BF92CF92DF92EF92FF92F9
:100210000F931F93CF93DF936C017B018B01040F2E
:10022000151FEB015E01AE18BF08C017D10759F0CA
:100230006991D601ED91FC910190F081E02DC6010C
:100240001995892B79F7C501DF91CF911F910F91F6
:10025000FF90EF90DF90CF90BF90AF900895FC019A
:10026000538D448D252F30E0842F90E0821B930B1B
:10027000541710F0CF96089501970895FC01918DC1
:10028000828D981761F0A28DAE0FBF2FB11D5D96C4
:100290008C91928D9F5F9F73928F90E008958FEF66
:1002A0009FEF0895FC01918D828D981731F0828D1A
:1002B000E80FF11D858D90E008958FEF9FEF089571
:1002C000FC01918D228D892F90E0805C9F4F821BD5
:1002D00091098F739927089582E192E0F1DF21E07F
:1002E000892B09F420E0822F0895FC01A48DA80F2A
:1002F000B92FB11DA35ABF4F2C91848D90E0019668
:100300008F739927848FA689B7892C93A089B18987
:100310008C91837080648C93938D848D981306C028
:100320000288F389E02D80818F7D80830895EF928C
:10033000FF920F931F93CF93DF93EC0181E0888F9F
:100340009B8D8C8D98131AC0E889F989808185FF6F
:1003500015C09FB7F894EE89FF896083E889F98911
:1003600080818370806480839FBF81E090E0DF9113
:10037000CF911F910F91FF90EF900895F62E0B8D66
:1003800010E00F5F1F4F0F731127E02E8C8D8E1121
:100390000BC00FB607FCFACFE889F989808185FF89
:1003A000F5CFCE01A2DFF2CFEB8DEC0FFD2FF11DCB
:1003B000E35AFF4FF0829FB7F8940B8FEA89FB89CD
:1003C00080818062D0CFCF93DF93EC01888D88232A
:1003D000B1F0AA89BB89E889F9898C9185FD03C0B0
:1003E000808186FD0CC00FB607FCF7CF8C9185FF8E
:1003F000F2CF808185FFEDCFCE0177DFEACFDF91AD
:10040000CF91089580E090E0892B21F065DF811184
:100410000E94000080E090E0892B49F080E090E0AD
:10042000892B29F00E94000081110E94000080E0C9
:1004300090E0892B49F080E090E0892B29F00E9420
:10044000000081110E94000080E090E0892B49F0BB
:1004500080E090E0892B29F00E94000081110C942B
:10046000000008951F920F920FB60F9211242F9340
:100470003F938F939F93AF93BF938091B4029091DA
:10048000B502A091B602B091B7023091B30223E059
:10049000230F2D3758F50196A11DB11D2093B302EE
:1004A0008093B4029093B502A093B602B093B702C2
:1004B0008091AF029091B002A091B102B091B202CE
:1004C0000196A11DB11D8093AF029093B002A0933D
:1004D000B102B093B202BF91AF919F918F913F91C2
:1004E0002F910F900FBE0F901F90189526E8230FA5
:1004F0000296A11DB11DD2CF1F920F920FB60F927F
:1005000011240BB60F922F933F934F935F936F93EA
:100510007F938F939F93AF93BF93EF93FF9382E16A
:1005200092E0E3DEFF91EF91BF91AF919F918F91A8
:100530007F916F915F914F913F912F910F900BBEE3
:100540000F900FBE0F901F9018951F920F920FB62D
:100550000F9211240BB60F922F938F939F93EF93CB
:10056000FF93E0912202F09123028081E091280222
:10057000F091290282FD1DC0908180912B028F5F36
:100580008F7320912C02821741F0E0912B02F0E052
:10059000EE5EFD4F958F80932B02FF91EF919F911F
:1005A0008F912F910F900BBE0F900FBE0F901F9049
:1005B00018958081F2CFCF93DF93CDB7DEB7A197A7
:1005C0000FB6F894DEBF0FBECDBF789484B58260BD
:1005D00084BD84B5816084BD85B5826085BD85B5E7
:1005E000816085BD80916E00816080936E00109265
:1005F00081008091810082608093810080918100E0
:100600008160809381008091800081608093800070
:100610008091B10084608093B1008091B0008160CE
:100620008093B000809191008260809391008091CE
:10063000910081608093910080919000816080930F
:1006400090008091A10082608093A1008091A10020
:1006500081608093A1008091A00081608093A000C0
:10066000809121018260809321018091210181602C
:1006700080932101809120018160809320018091ED
:100680007A00846080937A0080917A0082608093FF
:100690007A0080917A00816080937A0080917A005C
:1006A000806880937A001092C100E4E9F1E024911F
:1006B000EEE4F1E08491882399F090E0880F991F8F
:1006C000FC01E250FF4FA591B491FC01EC51FF4FAA
:1006D000859194918FB7F894EC91E22BEC938FBFB6
:1006E000E0912202F091230282E08083E0911E02D9
:1006F000F0911F021082E0912002F09121028FEC14
:10070000808310922A02E0912602F091270286E06F
:100710008083E0912402F0912502808180618083B2
:10072000E0912402F0912502808188608083E0912D
:100730002402F0912502808180688083E091240268
:10074000F091250280818F7D808384E3E82E95E3FC
:10075000F92E8E01015E1F4F19A2E8A2FF8EF8014B
:1007600001900020E9F73197AF01401B510BB80110
:1007700082E192E047DD46DEEFCFE2E1F2E0138274
:10078000128288EE93E0A0E0B0E084839583A68394
:10079000B78384E092E09183808385EC90E0958735
:1007A000848784EC90E09787868780EC90E0918B3B
:1007B000808B81EC90E0938B828B82EC90E0958B28
:1007C000848B86EC90E0978B868B118E128E138E25
:1007D000148E0895EE0FFF1F881F8BBF0790F691B0
:0807E000E02D1994F894FFCFFD
:1007E80000000000970102012F01E30160013E01B2
:0207F8005201AC
:00000001FF
